{
  "_format": "hh-sol-artifact-1",
  "contractName": "ERC721NFT",
  "sourceName": "contracts/ERC721NFT.sol",
  "abi": [
    {
      "inputs": [],
      "stateMutability": "nonpayable",
      "type": "constructor"
    },
    {
      "inputs": [],
      "name": "AccessControlBadConfirmation",
      "type": "error"
    },
    {
      "inputs": [
        {
          "internalType": "address",
          "name": "account",
          "type": "address"
        },
        {
          "internalType": "bytes32",
          "name": "neededRole",
          "type": "bytes32"
        }
      ],
      "name": "AccessControlUnauthorizedAccount",
      "type": "error"
    },
    {
      "inputs": [],
      "name": "ERC721EnumerableForbiddenBatchMint",
      "type": "error"
    },
    {
      "inputs": [
        {
          "internalType": "address",
          "name": "sender",
          "type": "address"
        },
        {
          "internalType": "uint256",
          "name": "tokenId",
          "type": "uint256"
        },
        {
          "internalType": "address",
          "name": "owner",
          "type": "address"
        }
      ],
      "name": "ERC721IncorrectOwner",
      "type": "error"
    },
    {
      "inputs": [
        {
          "internalType": "address",
          "name": "operator",
          "type": "address"
        },
        {
          "internalType": "uint256",
          "name": "tokenId",
          "type": "uint256"
        }
      ],
      "name": "ERC721InsufficientApproval",
      "type": "error"
    },
    {
      "inputs": [
        {
          "internalType": "address",
          "name": "approver",
          "type": "address"
        }
      ],
      "name": "ERC721InvalidApprover",
      "type": "error"
    },
    {
      "inputs": [
        {
          "internalType": "address",
          "name": "operator",
          "type": "address"
        }
      ],
      "name": "ERC721InvalidOperator",
      "type": "error"
    },
    {
      "inputs": [
        {
          "internalType": "address",
          "name": "owner",
          "type": "address"
        }
      ],
      "name": "ERC721InvalidOwner",
      "type": "error"
    },
    {
      "inputs": [
        {
          "internalType": "address",
          "name": "receiver",
          "type": "address"
        }
      ],
      "name": "ERC721InvalidReceiver",
      "type": "error"
    },
    {
      "inputs": [
        {
          "internalType": "address",
          "name": "sender",
          "type": "address"
        }
      ],
      "name": "ERC721InvalidSender",
      "type": "error"
    },
    {
      "inputs": [
        {
          "internalType": "uint256",
          "name": "tokenId",
          "type": "uint256"
        }
      ],
      "name": "ERC721NonexistentToken",
      "type": "error"
    },
    {
      "inputs": [
        {
          "internalType": "address",
          "name": "owner",
          "type": "address"
        },
        {
          "internalType": "uint256",
          "name": "index",
          "type": "uint256"
        }
      ],
      "name": "ERC721OutOfBoundsIndex",
      "type": "error"
    },
    {
      "inputs": [
        {
          "internalType": "address",
          "name": "owner",
          "type": "address"
        }
      ],
      "name": "OwnableInvalidOwner",
      "type": "error"
    },
    {
      "inputs": [
        {
          "internalType": "address",
          "name": "account",
          "type": "address"
        }
      ],
      "name": "OwnableUnauthorizedAccount",
      "type": "error"
    },
    {
      "anonymous": false,
      "inputs": [
        {
          "indexed": true,
          "internalType": "address",
          "name": "owner",
          "type": "address"
        },
        {
          "indexed": true,
          "internalType": "address",
          "name": "approved",
          "type": "address"
        },
        {
          "indexed": true,
          "internalType": "uint256",
          "name": "tokenId",
          "type": "uint256"
        }
      ],
      "name": "Approval",
      "type": "event"
    },
    {
      "anonymous": false,
      "inputs": [
        {
          "indexed": true,
          "internalType": "address",
          "name": "owner",
          "type": "address"
        },
        {
          "indexed": true,
          "internalType": "address",
          "name": "operator",
          "type": "address"
        },
        {
          "indexed": false,
          "internalType": "bool",
          "name": "approved",
          "type": "bool"
        }
      ],
      "name": "ApprovalForAll",
      "type": "event"
    },
    {
      "anonymous": false,
      "inputs": [
        {
          "indexed": true,
          "internalType": "address",
          "name": "previousOwner",
          "type": "address"
        },
        {
          "indexed": true,
          "internalType": "address",
          "name": "newOwner",
          "type": "address"
        }
      ],
      "name": "OwnershipTransferred",
      "type": "event"
    },
    {
      "anonymous": false,
      "inputs": [
        {
          "indexed": true,
          "internalType": "bytes32",
          "name": "role",
          "type": "bytes32"
        },
        {
          "indexed": true,
          "internalType": "bytes32",
          "name": "previousAdminRole",
          "type": "bytes32"
        },
        {
          "indexed": true,
          "internalType": "bytes32",
          "name": "newAdminRole",
          "type": "bytes32"
        }
      ],
      "name": "RoleAdminChanged",
      "type": "event"
    },
    {
      "anonymous": false,
      "inputs": [
        {
          "indexed": true,
          "internalType": "bytes32",
          "name": "role",
          "type": "bytes32"
        },
        {
          "indexed": true,
          "internalType": "address",
          "name": "account",
          "type": "address"
        },
        {
          "indexed": true,
          "internalType": "address",
          "name": "sender",
          "type": "address"
        }
      ],
      "name": "RoleGranted",
      "type": "event"
    },
    {
      "anonymous": false,
      "inputs": [
        {
          "indexed": true,
          "internalType": "bytes32",
          "name": "role",
          "type": "bytes32"
        },
        {
          "indexed": true,
          "internalType": "address",
          "name": "account",
          "type": "address"
        },
        {
          "indexed": true,
          "internalType": "address",
          "name": "sender",
          "type": "address"
        }
      ],
      "name": "RoleRevoked",
      "type": "event"
    },
    {
      "anonymous": false,
      "inputs": [
        {
          "indexed": true,
          "internalType": "address",
          "name": "from",
          "type": "address"
        },
        {
          "indexed": true,
          "internalType": "address",
          "name": "to",
          "type": "address"
        },
        {
          "indexed": true,
          "internalType": "uint256",
          "name": "tokenId",
          "type": "uint256"
        }
      ],
      "name": "Transfer",
      "type": "event"
    },
    {
      "inputs": [],
      "name": "DEFAULT_ADMIN_ROLE",
      "outputs": [
        {
          "internalType": "bytes32",
          "name": "",
          "type": "bytes32"
        }
      ],
      "stateMutability": "view",
      "type": "function"
    },
    {
      "inputs": [],
      "name": "MINT_PRICE",
      "outputs": [
        {
          "internalType": "uint256",
          "name": "",
          "type": "uint256"
        }
      ],
      "stateMutability": "view",
      "type": "function"
    },
    {
      "inputs": [],
      "name": "OPERATOR_ROLE",
      "outputs": [
        {
          "internalType": "bytes32",
          "name": "",
          "type": "bytes32"
        }
      ],
      "stateMutability": "view",
      "type": "function"
    },
    {
      "inputs": [
        {
          "internalType": "address[]",
          "name": "addresses",
          "type": "address[]"
        }
      ],
      "name": "addToWhitelist",
      "outputs": [],
      "stateMutability": "nonpayable",
      "type": "function"
    },
    {
      "inputs": [
        {
          "internalType": "address",
          "name": "to",
          "type": "address"
        },
        {
          "internalType": "uint256",
          "name": "tokenId",
          "type": "uint256"
        }
      ],
      "name": "approve",
      "outputs": [],
      "stateMutability": "nonpayable",
      "type": "function"
    },
    {
      "inputs": [
        {
          "internalType": "address",
          "name": "owner",
          "type": "address"
        }
      ],
      "name": "balanceOf",
      "outputs": [
        {
          "internalType": "uint256",
          "name": "",
          "type": "uint256"
        }
      ],
      "stateMutability": "view",
      "type": "function"
    },
    {
      "inputs": [
        {
          "internalType": "address[]",
          "name": "addresses",
          "type": "address[]"
        }
      ],
      "name": "batchAirdrop",
      "outputs": [],
      "stateMutability": "nonpayable",
      "type": "function"
    },
    {
      "inputs": [],
      "name": "blastContract",
      "outputs": [
        {
          "internalType": "contract IBlast",
          "name": "",
          "type": "address"
        }
      ],
      "stateMutability": "view",
      "type": "function"
    },
    {
      "inputs": [
        {
          "internalType": "address",
          "name": "recipient",
          "type": "address"
        }
      ],
      "name": "claimGasFees",
      "outputs": [],
      "stateMutability": "nonpayable",
      "type": "function"
    },
    {
      "inputs": [
        {
          "internalType": "uint256",
          "name": "tokenId",
          "type": "uint256"
        }
      ],
      "name": "getApproved",
      "outputs": [
        {
          "internalType": "address",
          "name": "",
          "type": "address"
        }
      ],
      "stateMutability": "view",
      "type": "function"
    },
    {
      "inputs": [
        {
          "internalType": "bytes32",
          "name": "role",
          "type": "bytes32"
        }
      ],
      "name": "getRoleAdmin",
      "outputs": [
        {
          "internalType": "bytes32",
          "name": "",
          "type": "bytes32"
        }
      ],
      "stateMutability": "view",
      "type": "function"
    },
    {
      "inputs": [],
      "name": "getWhitelistAddresses",
      "outputs": [
        {
          "internalType": "address[]",
          "name": "",
          "type": "address[]"
        }
      ],
      "stateMutability": "view",
      "type": "function"
    },
    {
      "inputs": [
        {
          "internalType": "bytes32",
          "name": "role",
          "type": "bytes32"
        },
        {
          "internalType": "address",
          "name": "account",
          "type": "address"
        }
      ],
      "name": "grantRole",
      "outputs": [],
      "stateMutability": "nonpayable",
      "type": "function"
    },
    {
      "inputs": [
        {
          "internalType": "address",
          "name": "",
          "type": "address"
        }
      ],
      "name": "hasMintedInWhitelist",
      "outputs": [
        {
          "internalType": "bool",
          "name": "",
          "type": "bool"
        }
      ],
      "stateMutability": "view",
      "type": "function"
    },
    {
      "inputs": [
        {
          "internalType": "bytes32",
          "name": "role",
          "type": "bytes32"
        },
        {
          "internalType": "address",
          "name": "account",
          "type": "address"
        }
      ],
      "name": "hasRole",
      "outputs": [
        {
          "internalType": "bool",
          "name": "",
          "type": "bool"
        }
      ],
      "stateMutability": "view",
      "type": "function"
    },
    {
      "inputs": [
        {
          "internalType": "address",
          "name": "owner",
          "type": "address"
        },
        {
          "internalType": "address",
          "name": "operator",
          "type": "address"
        }
      ],
      "name": "isApprovedForAll",
      "outputs": [
        {
          "internalType": "bool",
          "name": "",
          "type": "bool"
        }
      ],
      "stateMutability": "view",
      "type": "function"
    },
    {
      "inputs": [
        {
          "internalType": "address",
          "name": "addr",
          "type": "address"
        }
      ],
      "name": "isWhitelisted",
      "outputs": [
        {
          "internalType": "bool",
          "name": "",
          "type": "bool"
        }
      ],
      "stateMutability": "view",
      "type": "function"
    },
    {
      "inputs": [],
      "name": "maxSupply",
      "outputs": [
        {
          "internalType": "uint256",
          "name": "",
          "type": "uint256"
        }
      ],
      "stateMutability": "view",
      "type": "function"
    },
    {
      "inputs": [
        {
          "internalType": "uint256",
          "name": "quantity",
          "type": "uint256"
        }
      ],
      "name": "mint",
      "outputs": [],
      "stateMutability": "payable",
      "type": "function"
    },
    {
      "inputs": [],
      "name": "name",
      "outputs": [
        {
          "internalType": "string",
          "name": "",
          "type": "string"
        }
      ],
      "stateMutability": "view",
      "type": "function"
    },
    {
      "inputs": [],
      "name": "owner",
      "outputs": [
        {
          "internalType": "address",
          "name": "",
          "type": "address"
        }
      ],
      "stateMutability": "view",
      "type": "function"
    },
    {
      "inputs": [
        {
          "internalType": "uint256",
          "name": "tokenId",
          "type": "uint256"
        }
      ],
      "name": "ownerOf",
      "outputs": [
        {
          "internalType": "address",
          "name": "",
          "type": "address"
        }
      ],
      "stateMutability": "view",
      "type": "function"
    },
    {
      "inputs": [],
      "name": "remainingSupply",
      "outputs": [
        {
          "internalType": "uint256",
          "name": "",
          "type": "uint256"
        }
      ],
      "stateMutability": "view",
      "type": "function"
    },
    {
      "inputs": [
        {
          "internalType": "address[]",
          "name": "addresses",
          "type": "address[]"
        }
      ],
      "name": "removeFromWhitelist",
      "outputs": [],
      "stateMutability": "nonpayable",
      "type": "function"
    },
    {
      "inputs": [],
      "name": "renounceOwnership",
      "outputs": [],
      "stateMutability": "nonpayable",
      "type": "function"
    },
    {
      "inputs": [
        {
          "internalType": "bytes32",
          "name": "role",
          "type": "bytes32"
        },
        {
          "internalType": "address",
          "name": "callerConfirmation",
          "type": "address"
        }
      ],
      "name": "renounceRole",
      "outputs": [],
      "stateMutability": "nonpayable",
      "type": "function"
    },
    {
      "inputs": [
        {
          "internalType": "bytes32",
          "name": "role",
          "type": "bytes32"
        },
        {
          "internalType": "address",
          "name": "account",
          "type": "address"
        }
      ],
      "name": "revokeRole",
      "outputs": [],
      "stateMutability": "nonpayable",
      "type": "function"
    },
    {
      "inputs": [
        {
          "internalType": "address",
          "name": "from",
          "type": "address"
        },
        {
          "internalType": "address",
          "name": "to",
          "type": "address"
        },
        {
          "internalType": "uint256",
          "name": "tokenId",
          "type": "uint256"
        }
      ],
      "name": "safeTransferFrom",
      "outputs": [],
      "stateMutability": "nonpayable",
      "type": "function"
    },
    {
      "inputs": [
        {
          "internalType": "address",
          "name": "from",
          "type": "address"
        },
        {
          "internalType": "address",
          "name": "to",
          "type": "address"
        },
        {
          "internalType": "uint256",
          "name": "tokenId",
          "type": "uint256"
        },
        {
          "internalType": "bytes",
          "name": "data",
          "type": "bytes"
        }
      ],
      "name": "safeTransferFrom",
      "outputs": [],
      "stateMutability": "nonpayable",
      "type": "function"
    },
    {
      "inputs": [],
      "name": "salePhase",
      "outputs": [
        {
          "internalType": "enum ERC721NFT.SalePhase",
          "name": "",
          "type": "uint8"
        }
      ],
      "stateMutability": "view",
      "type": "function"
    },
    {
      "inputs": [
        {
          "internalType": "address",
          "name": "operator",
          "type": "address"
        },
        {
          "internalType": "bool",
          "name": "approved",
          "type": "bool"
        }
      ],
      "name": "setApprovalForAll",
      "outputs": [],
      "stateMutability": "nonpayable",
      "type": "function"
    },
    {
      "inputs": [
        {
          "internalType": "string",
          "name": "baseURI",
          "type": "string"
        }
      ],
      "name": "setBaseURI",
      "outputs": [],
      "stateMutability": "nonpayable",
      "type": "function"
    },
    {
      "inputs": [
        {
          "internalType": "enum ERC721NFT.SalePhase",
          "name": "phase",
          "type": "uint8"
        }
      ],
      "name": "setSalePhase",
      "outputs": [],
      "stateMutability": "nonpayable",
      "type": "function"
    },
    {
      "inputs": [
        {
          "internalType": "bytes32",
          "name": "role",
          "type": "bytes32"
        },
        {
          "internalType": "address",
          "name": "account",
          "type": "address"
        }
      ],
      "name": "setupRole",
      "outputs": [],
      "stateMutability": "nonpayable",
      "type": "function"
    },
    {
      "inputs": [
        {
          "internalType": "bytes4",
          "name": "interfaceId",
          "type": "bytes4"
        }
      ],
      "name": "supportsInterface",
      "outputs": [
        {
          "internalType": "bool",
          "name": "",
          "type": "bool"
        }
      ],
      "stateMutability": "view",
      "type": "function"
    },
    {
      "inputs": [],
      "name": "symbol",
      "outputs": [
        {
          "internalType": "string",
          "name": "",
          "type": "string"
        }
      ],
      "stateMutability": "view",
      "type": "function"
    },
    {
      "inputs": [
        {
          "internalType": "uint256",
          "name": "index",
          "type": "uint256"
        }
      ],
      "name": "tokenByIndex",
      "outputs": [
        {
          "internalType": "uint256",
          "name": "",
          "type": "uint256"
        }
      ],
      "stateMutability": "view",
      "type": "function"
    },
    {
      "inputs": [
        {
          "internalType": "address",
          "name": "owner",
          "type": "address"
        },
        {
          "internalType": "uint256",
          "name": "index",
          "type": "uint256"
        }
      ],
      "name": "tokenOfOwnerByIndex",
      "outputs": [
        {
          "internalType": "uint256",
          "name": "",
          "type": "uint256"
        }
      ],
      "stateMutability": "view",
      "type": "function"
    },
    {
      "inputs": [
        {
          "internalType": "uint256",
          "name": "tokenId",
          "type": "uint256"
        }
      ],
      "name": "tokenURI",
      "outputs": [
        {
          "internalType": "string",
          "name": "",
          "type": "string"
        }
      ],
      "stateMutability": "view",
      "type": "function"
    },
    {
      "inputs": [
        {
          "internalType": "address",
          "name": "owner",
          "type": "address"
        }
      ],
      "name": "tokensOfOwner",
      "outputs": [
        {
          "internalType": "uint256[]",
          "name": "",
          "type": "uint256[]"
        }
      ],
      "stateMutability": "view",
      "type": "function"
    },
    {
      "inputs": [],
      "name": "totalSupply",
      "outputs": [
        {
          "internalType": "uint256",
          "name": "",
          "type": "uint256"
        }
      ],
      "stateMutability": "view",
      "type": "function"
    },
    {
      "inputs": [
        {
          "internalType": "address",
          "name": "from",
          "type": "address"
        },
        {
          "internalType": "address",
          "name": "to",
          "type": "address"
        },
        {
          "internalType": "uint256",
          "name": "tokenId",
          "type": "uint256"
        }
      ],
      "name": "transferFrom",
      "outputs": [],
      "stateMutability": "nonpayable",
      "type": "function"
    },
    {
      "inputs": [
        {
          "internalType": "address",
          "name": "newOwner",
          "type": "address"
        }
      ],
      "name": "transferOwnership",
      "outputs": [],
      "stateMutability": "nonpayable",
      "type": "function"
    },
    {
      "inputs": [],
      "name": "withdraw",
      "outputs": [],
      "stateMutability": "nonpayable",
      "type": "function"
    }
  ],
  "bytecode": "0x60806040526107d06013553480156200001757600080fd5b50336040518060400160405280600b81526020017f43686174794e205a484f550000000000000000000000000000000000000000008152506040518060400160405280600481526020017f5a484f5500000000000000000000000000000000000000000000000000000000815250816000908162000096919062000830565b508060019081620000a8919062000830565b505050600073ffffffffffffffffffffffffffffffffffffffff168173ffffffffffffffffffffffffffffffffffffffff1603620001205760006040517f1e4fbdf70000000000000000000000000000000000000000000000000000000081526004016200011791906200095c565b60405180910390fd5b62000131816200028660201b60201c565b506000601460006101000a81548160ff021916908360028111156200015b576200015a62000979565b5b0217905550734300000000000000000000000000000000000002600e60006101000a81548173ffffffffffffffffffffffffffffffffffffffff021916908373ffffffffffffffffffffffffffffffffffffffff160217905550600e60009054906101000a900473ffffffffffffffffffffffffffffffffffffffff1673ffffffffffffffffffffffffffffffffffffffff16634e606c476040518163ffffffff1660e01b8152600401600060405180830381600087803b1580156200022057600080fd5b505af115801562000235573d6000803e3d6000fd5b505050506200024e6000801b336200034c60201b60201c565b620002807f97667070c54ef182b0f5858b034beac1b6f3089aa2d3188bb1e8929f4fa9b929336200034c60201b60201c565b620009a8565b6000600a60009054906101000a900473ffffffffffffffffffffffffffffffffffffffff16905081600a60006101000a81548173ffffffffffffffffffffffffffffffffffffffff021916908373ffffffffffffffffffffffffffffffffffffffff1602179055508173ffffffffffffffffffffffffffffffffffffffff168173ffffffffffffffffffffffffffffffffffffffff167f8be0079c531659141344cd1fd0a4f28419497f9722a3daafe3b4186f6b6457e060405160405180910390a35050565b6200035c6200037360201b60201c565b6200036e82826200041560201b60201c565b505050565b620003836200051960201b60201c565b73ffffffffffffffffffffffffffffffffffffffff16620003a96200052160201b60201c565b73ffffffffffffffffffffffffffffffffffffffff16146200041357620003d56200051960201b60201c565b6040517f118cdaa70000000000000000000000000000000000000000000000000000000081526004016200040a91906200095c565b60405180910390fd5b565b60006200042983836200054b60201b60201c565b6200050e576001600b600085815260200190815260200160002060000160008473ffffffffffffffffffffffffffffffffffffffff1673ffffffffffffffffffffffffffffffffffffffff16815260200190815260200160002060006101000a81548160ff021916908315150217905550620004aa6200051960201b60201c565b73ffffffffffffffffffffffffffffffffffffffff168273ffffffffffffffffffffffffffffffffffffffff16847f2f8788117e7eff1d82e926ec794901d17c78024a50270940304540a733656f0d60405160405180910390a46001905062000513565b600090505b92915050565b600033905090565b6000600a60009054906101000a900473ffffffffffffffffffffffffffffffffffffffff16905090565b6000600b600084815260200190815260200160002060000160008373ffffffffffffffffffffffffffffffffffffffff1673ffffffffffffffffffffffffffffffffffffffff16815260200190815260200160002060009054906101000a900460ff16905092915050565b600081519050919050565b7f4e487b7100000000000000000000000000000000000000000000000000000000600052604160045260246000fd5b7f4e487b7100000000000000000000000000000000000000000000000000000000600052602260045260246000fd5b600060028204905060018216806200063857607f821691505b6020821081036200064e576200064d620005f0565b5b50919050565b60008190508160005260206000209050919050565b60006020601f8301049050919050565b600082821b905092915050565b600060088302620006b87fffffffffffffffffffffffffffffffffffffffffffffffffffffffffffffffff8262000679565b620006c4868362000679565b95508019841693508086168417925050509392505050565b6000819050919050565b6000819050919050565b6000620007116200070b6200070584620006dc565b620006e6565b620006dc565b9050919050565b6000819050919050565b6200072d83620006f0565b620007456200073c8262000718565b84845462000686565b825550505050565b600090565b6200075c6200074d565b6200076981848462000722565b505050565b5b8181101562000791576200078560008262000752565b6001810190506200076f565b5050565b601f821115620007e057620007aa8162000654565b620007b58462000669565b81016020851015620007c5578190505b620007dd620007d48562000669565b8301826200076e565b50505b505050565b600082821c905092915050565b60006200080560001984600802620007e5565b1980831691505092915050565b6000620008208383620007f2565b9150826002028217905092915050565b6200083b82620005b6565b67ffffffffffffffff811115620008575762000856620005c1565b5b6200086382546200061f565b6200087082828562000795565b600060209050601f831160018114620008a8576000841562000893578287015190505b6200089f858262000812565b8655506200090f565b601f198416620008b88662000654565b60005b82811015620008e257848901518255600182019150602085019450602081019050620008bb565b86831015620009025784890151620008fe601f891682620007f2565b8355505b6001600288020188555050505b505050505050565b600073ffffffffffffffffffffffffffffffffffffffff82169050919050565b6000620009448262000917565b9050919050565b620009568162000937565b82525050565b60006020820190506200097360008301846200094b565b92915050565b7f4e487b7100000000000000000000000000000000000000000000000000000000600052602160045260246000fd5b614e8580620009b86000396000f3fe6080604052600436106102675760003560e01c80637f64978311610144578063c002d23d116100b6578063e4f2487a1161007a578063e4f2487a14610953578063e985e9c51461097e578063f2fde38b146109bb578063f5b541a6146109e4578063fa82ac7614610a0f578063fce14af614610a3857610267565b8063c002d23d1461086c578063c87b56dd14610897578063d547741f146108d4578063d5abeb01146108fd578063da0239a61461092857610267565b8063992f9f4b11610108578063992f9f4b146107815780639edfbec9146107aa578063a0712d68146107d3578063a217fddf146107ef578063a22cb4651461081a578063b88d4fde1461084357610267565b80637f649783146106885780638462151c146106b15780638da5cb5b146106ee57806391d148541461071957806395d89b411461075657610267565b80633af32abf116101dd57806355f804b3116101a157806355f804b31461057a578063578cbd1f146105a35780636352211e146105ce57806370a082311461060b578063715018a6146106485780637ad594311461065f57610267565b80633af32abf146104975780633ccfd60b146104d457806342842e0e146104eb5780634f6ccce714610514578063548db1741461055157610267565b806318160ddd1161022f57806318160ddd1461037757806323b872dd146103a2578063248a9ca3146103cb5780632f2ff15d146104085780632f745c591461043157806336568abe1461046e57610267565b806301ffc9a71461026c57806306fdde03146102a9578063081812fc146102d4578063095ea7b3146103115780630a8b062b1461033a575b600080fd5b34801561027857600080fd5b50610293600480360381019061028e9190613876565b610a63565b6040516102a091906138be565b60405180910390f35b3480156102b557600080fd5b506102be610a75565b6040516102cb9190613969565b60405180910390f35b3480156102e057600080fd5b506102fb60048036038101906102f691906139c1565b610b07565b6040516103089190613a2f565b60405180910390f35b34801561031d57600080fd5b5061033860048036038101906103339190613a76565b610b23565b005b34801561034657600080fd5b50610361600480360381019061035c9190613ab6565b610b39565b60405161036e91906138be565b60405180910390f35b34801561038357600080fd5b5061038c610b59565b6040516103999190613af2565b60405180910390f35b3480156103ae57600080fd5b506103c960048036038101906103c49190613b0d565b610b66565b005b3480156103d757600080fd5b506103f260048036038101906103ed9190613b96565b610c68565b6040516103ff9190613bd2565b60405180910390f35b34801561041457600080fd5b5061042f600480360381019061042a9190613bed565b610c88565b005b34801561043d57600080fd5b5061045860048036038101906104539190613a76565b610caa565b6040516104659190613af2565b60405180910390f35b34801561047a57600080fd5b5061049560048036038101906104909190613bed565b610d53565b005b3480156104a357600080fd5b506104be60048036038101906104b99190613ab6565b610dce565b6040516104cb91906138be565b60405180910390f35b3480156104e057600080fd5b506104e9610deb565b005b3480156104f757600080fd5b50610512600480360381019061050d9190613b0d565b610e8c565b005b34801561052057600080fd5b5061053b600480360381019061053691906139c1565b610eac565b6040516105489190613af2565b60405180910390f35b34801561055d57600080fd5b5061057860048036038101906105739190613c92565b610f22565b005b34801561058657600080fd5b506105a1600480360381019061059c9190613e0f565b611024565b005b3480156105af57600080fd5b506105b86110dd565b6040516105c59190613f16565b60405180910390f35b3480156105da57600080fd5b506105f560048036038101906105f091906139c1565b6111bc565b6040516106029190613a2f565b60405180910390f35b34801561061757600080fd5b50610632600480360381019061062d9190613ab6565b6111ce565b60405161063f9190613af2565b60405180910390f35b34801561065457600080fd5b5061065d611288565b005b34801561066b57600080fd5b5061068660048036038101906106819190613f5d565b61129c565b005b34801561069457600080fd5b506106af60048036038101906106aa9190613c92565b61136f565b005b3480156106bd57600080fd5b506106d860048036038101906106d39190613ab6565b611471565b6040516106e59190614048565b60405180910390f35b3480156106fa57600080fd5b50610703611519565b6040516107109190613a2f565b60405180910390f35b34801561072557600080fd5b50610740600480360381019061073b9190613bed565b611543565b60405161074d91906138be565b60405180910390f35b34801561076257600080fd5b5061076b6115ae565b6040516107789190613969565b60405180910390f35b34801561078d57600080fd5b506107a860048036038101906107a39190613ab6565b611640565b005b3480156107b657600080fd5b506107d160048036038101906107cc9190613c92565b6116ec565b005b6107ed60048036038101906107e891906139c1565b6117b2565b005b3480156107fb57600080fd5b50610804611ac6565b6040516108119190613bd2565b60405180910390f35b34801561082657600080fd5b50610841600480360381019061083c9190614096565b611acd565b005b34801561084f57600080fd5b5061086a60048036038101906108659190614177565b611ae3565b005b34801561087857600080fd5b50610881611b00565b60405161088e9190613af2565b60405180910390f35b3480156108a357600080fd5b506108be60048036038101906108b991906139c1565b611b0a565b6040516108cb9190613969565b60405180910390f35b3480156108e057600080fd5b506108fb60048036038101906108f69190613bed565b611b73565b005b34801561090957600080fd5b50610912611b95565b60405161091f9190613af2565b60405180910390f35b34801561093457600080fd5b5061093d611b9b565b60405161094a9190613af2565b60405180910390f35b34801561095f57600080fd5b50610968611bb2565b6040516109759190614271565b60405180910390f35b34801561098a57600080fd5b506109a560048036038101906109a0919061428c565b611bc5565b6040516109b291906138be565b60405180910390f35b3480156109c757600080fd5b506109e260048036038101906109dd9190613ab6565b611c59565b005b3480156109f057600080fd5b506109f9611cdf565b604051610a069190613bd2565b60405180910390f35b348015610a1b57600080fd5b50610a366004803603810190610a319190613bed565b611d03565b005b348015610a4457600080fd5b50610a4d611d1a565b604051610a5a919061432b565b60405180910390f35b6000610a6e82611d40565b9050919050565b606060008054610a8490614375565b80601f0160208091040260200160405190810160405280929190818152602001828054610ab090614375565b8015610afd5780601f10610ad257610100808354040283529160200191610afd565b820191906000526020600020905b815481529060010190602001808311610ae057829003601f168201915b5050505050905090565b6000610b1282611dba565b50610b1c82611e42565b9050919050565b610b358282610b30611e7f565b611e87565b5050565b60106020528060005260406000206000915054906101000a900460ff1681565b6000600880549050905090565b600073ffffffffffffffffffffffffffffffffffffffff168273ffffffffffffffffffffffffffffffffffffffff1603610bd85760006040517f64a0ae92000000000000000000000000000000000000000000000000000000008152600401610bcf9190613a2f565b60405180910390fd5b6000610bec8383610be7611e7f565b611e99565b90508373ffffffffffffffffffffffffffffffffffffffff168173ffffffffffffffffffffffffffffffffffffffff1614610c62578382826040517f64283d7b000000000000000000000000000000000000000000000000000000008152600401610c59939291906143a6565b60405180910390fd5b50505050565b6000600b6000838152602001908152602001600020600101549050919050565b610c9182610c68565b610c9a81611fb6565b610ca48383611fca565b50505050565b6000610cb5836111ce565b8210610cfa5782826040517fa57d13dc000000000000000000000000000000000000000000000000000000008152600401610cf19291906143dd565b60405180910390fd5b600660008473ffffffffffffffffffffffffffffffffffffffff1673ffffffffffffffffffffffffffffffffffffffff168152602001908152602001600020600083815260200190815260200160002054905092915050565b610d5b611e7f565b73ffffffffffffffffffffffffffffffffffffffff168173ffffffffffffffffffffffffffffffffffffffff1614610dbf576040517f6697b23200000000000000000000000000000000000000000000000000000000815260040160405180910390fd5b610dc982826120bc565b505050565b6000610de482600c6121af90919063ffffffff16565b9050919050565b610df36121df565b600047905060008111610e3b576040517f08c379a0000000000000000000000000000000000000000000000000000000008152600401610e3290614452565b60405180910390fd5b610e43611519565b73ffffffffffffffffffffffffffffffffffffffff166108fc829081150290604051600060405180830381858888f19350505050158015610e88573d6000803e3d6000fd5b5050565b610ea783838360405180602001604052806000815250611ae3565b505050565b6000610eb6610b59565b8210610efc576000826040517fa57d13dc000000000000000000000000000000000000000000000000000000008152600401610ef39291906143dd565b60405180910390fd5b60088281548110610f1057610f0f614472565b5b90600052602060002001549050919050565b610f4c7f97667070c54ef182b0f5858b034beac1b6f3089aa2d3188bb1e8929f4fa9b92933611543565b80610f8957503373ffffffffffffffffffffffffffffffffffffffff16610f71611519565b73ffffffffffffffffffffffffffffffffffffffff16145b610fc8576040517f08c379a0000000000000000000000000000000000000000000000000000000008152600401610fbf90614513565b60405180910390fd5b60005b8282905081101561101f57611011838383818110610fec57610feb614472565b5b90506020020160208101906110019190613ab6565b600c61226690919063ffffffff16565b508080600101915050610fcb565b505050565b61104e7f97667070c54ef182b0f5858b034beac1b6f3089aa2d3188bb1e8929f4fa9b92933611543565b8061108b57503373ffffffffffffffffffffffffffffffffffffffff16611073611519565b73ffffffffffffffffffffffffffffffffffffffff16145b6110ca576040517f08c379a00000000000000000000000000000000000000000000000000000000081526004016110c190614513565b60405180910390fd5b80600f90816110d991906146d5565b5050565b606060006110eb600c612296565b905060008167ffffffffffffffff81111561110957611108613ce4565b5b6040519080825280602002602001820160405280156111375781602001602082028036833780820191505090505b50905060005b828110156111b35761115981600c6122ab90919063ffffffff16565b82828151811061116c5761116b614472565b5b602002602001019073ffffffffffffffffffffffffffffffffffffffff16908173ffffffffffffffffffffffffffffffffffffffff1681525050808060010191505061113d565b50809250505090565b60006111c782611dba565b9050919050565b60008073ffffffffffffffffffffffffffffffffffffffff168273ffffffffffffffffffffffffffffffffffffffff16036112415760006040517f89c62b640000000000000000000000000000000000000000000000000000000081526004016112389190613a2f565b60405180910390fd5b600360008373ffffffffffffffffffffffffffffffffffffffff1673ffffffffffffffffffffffffffffffffffffffff168152602001908152602001600020549050919050565b6112906121df565b61129a60006122c5565b565b6112c67f97667070c54ef182b0f5858b034beac1b6f3089aa2d3188bb1e8929f4fa9b92933611543565b8061130357503373ffffffffffffffffffffffffffffffffffffffff166112eb611519565b73ffffffffffffffffffffffffffffffffffffffff16145b611342576040517f08c379a000000000000000000000000000000000000000000000000000000000815260040161133990614513565b60405180910390fd5b80601460006101000a81548160ff02191690836002811115611367576113666141fa565b5b021790555050565b6113997f97667070c54ef182b0f5858b034beac1b6f3089aa2d3188bb1e8929f4fa9b92933611543565b806113d657503373ffffffffffffffffffffffffffffffffffffffff166113be611519565b73ffffffffffffffffffffffffffffffffffffffff16145b611415576040517f08c379a000000000000000000000000000000000000000000000000000000000815260040161140c90614513565b60405180910390fd5b60005b8282905081101561146c5761145e83838381811061143957611438614472565b5b905060200201602081019061144e9190613ab6565b600c61238b90919063ffffffff16565b508080600101915050611418565b505050565b6060600061147e836111ce565b905060008167ffffffffffffffff81111561149c5761149b613ce4565b5b6040519080825280602002602001820160405280156114ca5781602001602082028036833780820191505090505b50905060005b8281101561150e576114e28582610caa565b8282815181106114f5576114f4614472565b5b60200260200101818152505080806001019150506114d0565b508092505050919050565b6000600a60009054906101000a900473ffffffffffffffffffffffffffffffffffffffff16905090565b6000600b600084815260200190815260200160002060000160008373ffffffffffffffffffffffffffffffffffffffff1673ffffffffffffffffffffffffffffffffffffffff16815260200190815260200160002060009054906101000a900460ff16905092915050565b6060600180546115bd90614375565b80601f01602080910402602001604051908101604052809291908181526020018280546115e990614375565b80156116365780601f1061160b57610100808354040283529160200191611636565b820191906000526020600020905b81548152906001019060200180831161161957829003601f168201915b5050505050905090565b6116486121df565b600e60009054906101000a900473ffffffffffffffffffffffffffffffffffffffff1673ffffffffffffffffffffffffffffffffffffffff1663954fa5ee30836040518363ffffffff1660e01b81526004016116a59291906147a7565b6020604051808303816000875af11580156116c4573d6000803e3d6000fd5b505050506040513d601f19601f820116820180604052508101906116e891906147e5565b5050565b6116f46121df565b6013546012541061173a576040517f08c379a00000000000000000000000000000000000000000000000000000000081526004016117319061485e565b60405180910390fd5b60005b828290508110156117ad5760006117526123bb565b905060016012600082825461176791906148ad565b9250508190555061179f84848481811061178457611783614472565b5b90506020020160208101906117999190613ab6565b82612497565b50808060010191505061173d565b505050565b600060028111156117c6576117c56141fa565b5b601460009054906101000a900460ff1660028111156117e8576117e76141fa565b5b03611828576040517f08c379a000000000000000000000000000000000000000000000000000000000815260040161181f9061492d565b60405180910390fd5b6000811161186b576040517f08c379a000000000000000000000000000000000000000000000000000000000815260040161186290614999565b60405180910390fd5b6013548160125461187c91906148ad565b11156118bd576040517f08c379a00000000000000000000000000000000000000000000000000000000081526004016118b49061485e565b60405180910390fd5b6512309ce54000816118cf91906149b9565b3414611910576040517f08c379a000000000000000000000000000000000000000000000000000000000815260040161190790614a47565b60405180910390fd5b60016002811115611924576119236141fa565b5b601460009054906101000a900460ff166002811115611946576119456141fa565b5b03611a795761195433610dce565b611993576040517f08c379a000000000000000000000000000000000000000000000000000000000815260040161198a90614ab3565b60405180910390fd5b601060003373ffffffffffffffffffffffffffffffffffffffff1673ffffffffffffffffffffffffffffffffffffffff16815260200190815260200160002060009054906101000a900460ff1615611a20576040517f08c379a0000000000000000000000000000000000000000000000000000000008152600401611a1790614b1f565b60405180910390fd5b6001601060003373ffffffffffffffffffffffffffffffffffffffff1673ffffffffffffffffffffffffffffffffffffffff16815260200190815260200160002060006101000a81548160ff0219169083151502179055505b60005b81811015611ac2576000611a8e6123bb565b9050600160126000828254611aa391906148ad565b92505081905550611ab43382612497565b508080600101915050611a7c565b5050565b6000801b81565b611adf611ad8611e7f565b8383612590565b5050565b611aee848484610b66565b611afa848484846126ff565b50505050565b6512309ce5400081565b6060611b1582611dba565b506000611b206128b6565b90506000815111611b405760405180602001604052806000815250611b6b565b80611b4a84612948565b604051602001611b5b929190614bc7565b6040516020818303038152906040525b915050919050565b611b7c82610c68565b611b8581611fb6565b611b8f83836120bc565b50505050565b60135481565b6000601254601354611bad9190614bf6565b905090565b601460009054906101000a900460ff1681565b6000600560008473ffffffffffffffffffffffffffffffffffffffff1673ffffffffffffffffffffffffffffffffffffffff16815260200190815260200160002060008373ffffffffffffffffffffffffffffffffffffffff1673ffffffffffffffffffffffffffffffffffffffff16815260200190815260200160002060009054906101000a900460ff16905092915050565b611c616121df565b600073ffffffffffffffffffffffffffffffffffffffff168173ffffffffffffffffffffffffffffffffffffffff1603611cd35760006040517f1e4fbdf7000000000000000000000000000000000000000000000000000000008152600401611cca9190613a2f565b60405180910390fd5b611cdc816122c5565b50565b7f97667070c54ef182b0f5858b034beac1b6f3089aa2d3188bb1e8929f4fa9b92981565b611d0b6121df565b611d158282611fca565b505050565b600e60009054906101000a900473ffffffffffffffffffffffffffffffffffffffff1681565b60007f7965db0b000000000000000000000000000000000000000000000000000000007bffffffffffffffffffffffffffffffffffffffffffffffffffffffff1916827bffffffffffffffffffffffffffffffffffffffffffffffffffffffff19161480611db35750611db282612a16565b5b9050919050565b600080611dc683612a90565b9050600073ffffffffffffffffffffffffffffffffffffffff168173ffffffffffffffffffffffffffffffffffffffff1603611e3957826040517f7e273289000000000000000000000000000000000000000000000000000000008152600401611e309190613af2565b60405180910390fd5b80915050919050565b60006004600083815260200190815260200160002060009054906101000a900473ffffffffffffffffffffffffffffffffffffffff169050919050565b600033905090565b611e948383836001612acd565b505050565b600080611ea7858585612c92565b9050600073ffffffffffffffffffffffffffffffffffffffff168173ffffffffffffffffffffffffffffffffffffffff1603611eeb57611ee684612eac565b611f2a565b8473ffffffffffffffffffffffffffffffffffffffff168173ffffffffffffffffffffffffffffffffffffffff1614611f2957611f288185612ef5565b5b5b600073ffffffffffffffffffffffffffffffffffffffff168573ffffffffffffffffffffffffffffffffffffffff1603611f6c57611f6784613056565b611fab565b8473ffffffffffffffffffffffffffffffffffffffff168173ffffffffffffffffffffffffffffffffffffffff1614611faa57611fa98585613127565b5b5b809150509392505050565b611fc781611fc2611e7f565b6131b2565b50565b6000611fd68383611543565b6120b1576001600b600085815260200190815260200160002060000160008473ffffffffffffffffffffffffffffffffffffffff1673ffffffffffffffffffffffffffffffffffffffff16815260200190815260200160002060006101000a81548160ff02191690831515021790555061204e611e7f565b73ffffffffffffffffffffffffffffffffffffffff168273ffffffffffffffffffffffffffffffffffffffff16847f2f8788117e7eff1d82e926ec794901d17c78024a50270940304540a733656f0d60405160405180910390a4600190506120b6565b600090505b92915050565b60006120c88383611543565b156121a4576000600b600085815260200190815260200160002060000160008473ffffffffffffffffffffffffffffffffffffffff1673ffffffffffffffffffffffffffffffffffffffff16815260200190815260200160002060006101000a81548160ff021916908315150217905550612141611e7f565b73ffffffffffffffffffffffffffffffffffffffff168273ffffffffffffffffffffffffffffffffffffffff16847ff6391f5c32d9c69d2a47ea670b442974b53935d1edc7fd64eb21e047a839171b60405160405180910390a4600190506121a9565b600090505b92915050565b60006121d7836000018373ffffffffffffffffffffffffffffffffffffffff1660001b613203565b905092915050565b6121e7611e7f565b73ffffffffffffffffffffffffffffffffffffffff16612205611519565b73ffffffffffffffffffffffffffffffffffffffff161461226457612228611e7f565b6040517f118cdaa700000000000000000000000000000000000000000000000000000000815260040161225b9190613a2f565b60405180910390fd5b565b600061228e836000018373ffffffffffffffffffffffffffffffffffffffff1660001b613226565b905092915050565b60006122a48260000161333a565b9050919050565b60006122ba836000018361334b565b60001c905092915050565b6000600a60009054906101000a900473ffffffffffffffffffffffffffffffffffffffff16905081600a60006101000a81548173ffffffffffffffffffffffffffffffffffffffff021916908373ffffffffffffffffffffffffffffffffffffffff1602179055508173ffffffffffffffffffffffffffffffffffffffff168173ffffffffffffffffffffffffffffffffffffffff167f8be0079c531659141344cd1fd0a4f28419497f9722a3daafe3b4186f6b6457e060405160405180910390a35050565b60006123b3836000018373ffffffffffffffffffffffffffffffffffffffff1660001b613376565b905092915050565b60008060135444426012546040516020016123d893929190614c4b565b6040516020818303038152906040528051906020012060001c6123fb9190614cb7565b90505b6011600082815260200190815260200160002060009054906101000a900460ff161561246457601354814260405160200161243a929190614ce8565b6040516020818303038152906040528051906020012060001c61245d9190614cb7565b90506123fe565b60016011600083815260200190815260200160002060006101000a81548160ff0219169083151502179055508091505090565b600073ffffffffffffffffffffffffffffffffffffffff168273ffffffffffffffffffffffffffffffffffffffff16036125095760006040517f64a0ae920000000000000000000000000000000000000000000000000000000081526004016125009190613a2f565b60405180910390fd5b600061251783836000611e99565b9050600073ffffffffffffffffffffffffffffffffffffffff168173ffffffffffffffffffffffffffffffffffffffff161461258b5760006040517f73c6ac6e0000000000000000000000000000000000000000000000000000000081526004016125829190613a2f565b60405180910390fd5b505050565b600073ffffffffffffffffffffffffffffffffffffffff168273ffffffffffffffffffffffffffffffffffffffff160361260157816040517f5b08ba180000000000000000000000000000000000000000000000000000000081526004016125f89190613a2f565b60405180910390fd5b80600560008573ffffffffffffffffffffffffffffffffffffffff1673ffffffffffffffffffffffffffffffffffffffff16815260200190815260200160002060008473ffffffffffffffffffffffffffffffffffffffff1673ffffffffffffffffffffffffffffffffffffffff16815260200190815260200160002060006101000a81548160ff0219169083151502179055508173ffffffffffffffffffffffffffffffffffffffff168373ffffffffffffffffffffffffffffffffffffffff167f17307eab39ab6107e8899845ad3d59bd9653f200f220920489ca2b5937696c31836040516126f291906138be565b60405180910390a3505050565b60008373ffffffffffffffffffffffffffffffffffffffff163b11156128b0578273ffffffffffffffffffffffffffffffffffffffff1663150b7a02612743611e7f565b8685856040518563ffffffff1660e01b81526004016127659493929190614d69565b6020604051808303816000875af19250505080156127a157506040513d601f19601f8201168201806040525081019061279e9190614dca565b60015b612825573d80600081146127d1576040519150601f19603f3d011682016040523d82523d6000602084013e6127d6565b606091505b50600081510361281d57836040517f64a0ae920000000000000000000000000000000000000000000000000000000081526004016128149190613a2f565b60405180910390fd5b805181602001fd5b63150b7a0260e01b7bffffffffffffffffffffffffffffffffffffffffffffffffffffffff1916817bffffffffffffffffffffffffffffffffffffffffffffffffffffffff1916146128ae57836040517f64a0ae920000000000000000000000000000000000000000000000000000000081526004016128a59190613a2f565b60405180910390fd5b505b50505050565b6060600f80546128c590614375565b80601f01602080910402602001604051908101604052809291908181526020018280546128f190614375565b801561293e5780601f106129135761010080835404028352916020019161293e565b820191906000526020600020905b81548152906001019060200180831161292157829003601f168201915b5050505050905090565b606060006001612957846133e6565b01905060008167ffffffffffffffff81111561297657612975613ce4565b5b6040519080825280601f01601f1916602001820160405280156129a85781602001600182028036833780820191505090505b509050600082602001820190505b600115612a0b578080600190039150507f3031323334353637383961626364656600000000000000000000000000000000600a86061a8153600a85816129ff576129fe614c88565b5b049450600085036129b6575b819350505050919050565b60007f780e9d63000000000000000000000000000000000000000000000000000000007bffffffffffffffffffffffffffffffffffffffffffffffffffffffff1916827bffffffffffffffffffffffffffffffffffffffffffffffffffffffff19161480612a895750612a8882613539565b5b9050919050565b60006002600083815260200190815260200160002060009054906101000a900473ffffffffffffffffffffffffffffffffffffffff169050919050565b8080612b065750600073ffffffffffffffffffffffffffffffffffffffff168273ffffffffffffffffffffffffffffffffffffffff1614155b15612c3a576000612b1684611dba565b9050600073ffffffffffffffffffffffffffffffffffffffff168373ffffffffffffffffffffffffffffffffffffffff1614158015612b8157508273ffffffffffffffffffffffffffffffffffffffff168173ffffffffffffffffffffffffffffffffffffffff1614155b8015612b945750612b928184611bc5565b155b15612bd657826040517fa9fbf51f000000000000000000000000000000000000000000000000000000008152600401612bcd9190613a2f565b60405180910390fd5b8115612c3857838573ffffffffffffffffffffffffffffffffffffffff168273ffffffffffffffffffffffffffffffffffffffff167f8c5be1e5ebec7d5bd14f71427d1e84f3dd0314c0f7b2291e5b200ac8c7c3b92560405160405180910390a45b505b836004600085815260200190815260200160002060006101000a81548173ffffffffffffffffffffffffffffffffffffffff021916908373ffffffffffffffffffffffffffffffffffffffff16021790555050505050565b600080612c9e84612a90565b9050600073ffffffffffffffffffffffffffffffffffffffff168373ffffffffffffffffffffffffffffffffffffffff1614612ce057612cdf81848661361b565b5b600073ffffffffffffffffffffffffffffffffffffffff168173ffffffffffffffffffffffffffffffffffffffff1614612d7157612d22600085600080612acd565b6001600360008373ffffffffffffffffffffffffffffffffffffffff1673ffffffffffffffffffffffffffffffffffffffff168152602001908152602001600020600082825403925050819055505b600073ffffffffffffffffffffffffffffffffffffffff168573ffffffffffffffffffffffffffffffffffffffff1614612df4576001600360008773ffffffffffffffffffffffffffffffffffffffff1673ffffffffffffffffffffffffffffffffffffffff168152602001908152602001600020600082825401925050819055505b846002600086815260200190815260200160002060006101000a81548173ffffffffffffffffffffffffffffffffffffffff021916908373ffffffffffffffffffffffffffffffffffffffff160217905550838573ffffffffffffffffffffffffffffffffffffffff168273ffffffffffffffffffffffffffffffffffffffff167fddf252ad1be2c89b69c2b068fc378daa952ba7f163c4a11628f55a4df523b3ef60405160405180910390a4809150509392505050565b6008805490506009600083815260200190815260200160002081905550600881908060018154018082558091505060019003906000526020600020016000909190919091505550565b6000612f00836111ce565b9050600060076000848152602001908152602001600020549050818114612fe5576000600660008673ffffffffffffffffffffffffffffffffffffffff1673ffffffffffffffffffffffffffffffffffffffff168152602001908152602001600020600084815260200190815260200160002054905080600660008773ffffffffffffffffffffffffffffffffffffffff1673ffffffffffffffffffffffffffffffffffffffff168152602001908152602001600020600084815260200190815260200160002081905550816007600083815260200190815260200160002081905550505b6007600084815260200190815260200160002060009055600660008573ffffffffffffffffffffffffffffffffffffffff1673ffffffffffffffffffffffffffffffffffffffff16815260200190815260200160002060008381526020019081526020016000206000905550505050565b6000600160088054905061306a9190614bf6565b905060006009600084815260200190815260200160002054905060006008838154811061309a57613099614472565b5b9060005260206000200154905080600883815481106130bc576130bb614472565b5b90600052602060002001819055508160096000838152602001908152602001600020819055506009600085815260200190815260200160002060009055600880548061310b5761310a614df7565b5b6001900381819060005260206000200160009055905550505050565b60006001613134846111ce565b61313e9190614bf6565b905081600660008573ffffffffffffffffffffffffffffffffffffffff1673ffffffffffffffffffffffffffffffffffffffff168152602001908152602001600020600083815260200190815260200160002081905550806007600084815260200190815260200160002081905550505050565b6131bc8282611543565b6131ff5780826040517fe2517d3f0000000000000000000000000000000000000000000000000000000081526004016131f6929190614e26565b60405180910390fd5b5050565b600080836001016000848152602001908152602001600020541415905092915050565b6000808360010160008481526020019081526020016000205490506000811461332e5760006001826132589190614bf6565b90506000600186600001805490506132709190614bf6565b90508082146132df57600086600001828154811061329157613290614472565b5b90600052602060002001549050808760000184815481106132b5576132b4614472565b5b90600052602060002001819055508387600101600083815260200190815260200160002081905550505b856000018054806132f3576132f2614df7565b5b600190038181906000526020600020016000905590558560010160008681526020019081526020016000206000905560019350505050613334565b60009150505b92915050565b600081600001805490509050919050565b600082600001828154811061336357613362614472565b5b9060005260206000200154905092915050565b60006133828383613203565b6133db5782600001829080600181540180825580915050600190039060005260206000200160009091909190915055826000018054905083600101600084815260200190815260200160002081905550600190506133e0565b600090505b92915050565b600080600090507a184f03e93ff9f4daa797ed6e38ed64bf6a1f0100000000000000008310613444577a184f03e93ff9f4daa797ed6e38ed64bf6a1f010000000000000000838161343a57613439614c88565b5b0492506040810190505b6d04ee2d6d415b85acef81000000008310613481576d04ee2d6d415b85acef8100000000838161347757613476614c88565b5b0492506020810190505b662386f26fc1000083106134b057662386f26fc1000083816134a6576134a5614c88565b5b0492506010810190505b6305f5e10083106134d9576305f5e10083816134cf576134ce614c88565b5b0492506008810190505b61271083106134fe5761271083816134f4576134f3614c88565b5b0492506004810190505b60648310613521576064838161351757613516614c88565b5b0492506002810190505b600a8310613530576001810190505b80915050919050565b60007f80ac58cd000000000000000000000000000000000000000000000000000000007bffffffffffffffffffffffffffffffffffffffffffffffffffffffff1916827bffffffffffffffffffffffffffffffffffffffffffffffffffffffff1916148061360457507f5b5e139f000000000000000000000000000000000000000000000000000000007bffffffffffffffffffffffffffffffffffffffffffffffffffffffff1916827bffffffffffffffffffffffffffffffffffffffffffffffffffffffff1916145b806136145750613613826136df565b5b9050919050565b613626838383613749565b6136da57600073ffffffffffffffffffffffffffffffffffffffff168373ffffffffffffffffffffffffffffffffffffffff160361369b57806040517f7e2732890000000000000000000000000000000000000000000000000000000081526004016136929190613af2565b60405180910390fd5b81816040517f177e802f0000000000000000000000000000000000000000000000000000000081526004016136d19291906143dd565b60405180910390fd5b505050565b60007f01ffc9a7000000000000000000000000000000000000000000000000000000007bffffffffffffffffffffffffffffffffffffffffffffffffffffffff1916827bffffffffffffffffffffffffffffffffffffffffffffffffffffffff1916149050919050565b60008073ffffffffffffffffffffffffffffffffffffffff168373ffffffffffffffffffffffffffffffffffffffff161415801561380157508273ffffffffffffffffffffffffffffffffffffffff168473ffffffffffffffffffffffffffffffffffffffff1614806137c257506137c18484611bc5565b5b8061380057508273ffffffffffffffffffffffffffffffffffffffff166137e883611e42565b73ffffffffffffffffffffffffffffffffffffffff16145b5b90509392505050565b6000604051905090565b600080fd5b600080fd5b60007fffffffff0000000000000000000000000000000000000000000000000000000082169050919050565b6138538161381e565b811461385e57600080fd5b50565b6000813590506138708161384a565b92915050565b60006020828403121561388c5761388b613814565b5b600061389a84828501613861565b91505092915050565b60008115159050919050565b6138b8816138a3565b82525050565b60006020820190506138d360008301846138af565b92915050565b600081519050919050565b600082825260208201905092915050565b60005b838110156139135780820151818401526020810190506138f8565b60008484015250505050565b6000601f19601f8301169050919050565b600061393b826138d9565b61394581856138e4565b93506139558185602086016138f5565b61395e8161391f565b840191505092915050565b600060208201905081810360008301526139838184613930565b905092915050565b6000819050919050565b61399e8161398b565b81146139a957600080fd5b50565b6000813590506139bb81613995565b92915050565b6000602082840312156139d7576139d6613814565b5b60006139e5848285016139ac565b91505092915050565b600073ffffffffffffffffffffffffffffffffffffffff82169050919050565b6000613a19826139ee565b9050919050565b613a2981613a0e565b82525050565b6000602082019050613a446000830184613a20565b92915050565b613a5381613a0e565b8114613a5e57600080fd5b50565b600081359050613a7081613a4a565b92915050565b60008060408385031215613a8d57613a8c613814565b5b6000613a9b85828601613a61565b9250506020613aac858286016139ac565b9150509250929050565b600060208284031215613acc57613acb613814565b5b6000613ada84828501613a61565b91505092915050565b613aec8161398b565b82525050565b6000602082019050613b076000830184613ae3565b92915050565b600080600060608486031215613b2657613b25613814565b5b6000613b3486828701613a61565b9350506020613b4586828701613a61565b9250506040613b56868287016139ac565b9150509250925092565b6000819050919050565b613b7381613b60565b8114613b7e57600080fd5b50565b600081359050613b9081613b6a565b92915050565b600060208284031215613bac57613bab613814565b5b6000613bba84828501613b81565b91505092915050565b613bcc81613b60565b82525050565b6000602082019050613be76000830184613bc3565b92915050565b60008060408385031215613c0457613c03613814565b5b6000613c1285828601613b81565b9250506020613c2385828601613a61565b9150509250929050565b600080fd5b600080fd5b600080fd5b60008083601f840112613c5257613c51613c2d565b5b8235905067ffffffffffffffff811115613c6f57613c6e613c32565b5b602083019150836020820283011115613c8b57613c8a613c37565b5b9250929050565b60008060208385031215613ca957613ca8613814565b5b600083013567ffffffffffffffff811115613cc757613cc6613819565b5b613cd385828601613c3c565b92509250509250929050565b600080fd5b7f4e487b7100000000000000000000000000000000000000000000000000000000600052604160045260246000fd5b613d1c8261391f565b810181811067ffffffffffffffff82111715613d3b57613d3a613ce4565b5b80604052505050565b6000613d4e61380a565b9050613d5a8282613d13565b919050565b600067ffffffffffffffff821115613d7a57613d79613ce4565b5b613d838261391f565b9050602081019050919050565b82818337600083830152505050565b6000613db2613dad84613d5f565b613d44565b905082815260208101848484011115613dce57613dcd613cdf565b5b613dd9848285613d90565b509392505050565b600082601f830112613df657613df5613c2d565b5b8135613e06848260208601613d9f565b91505092915050565b600060208284031215613e2557613e24613814565b5b600082013567ffffffffffffffff811115613e4357613e42613819565b5b613e4f84828501613de1565b91505092915050565b600081519050919050565b600082825260208201905092915050565b6000819050602082019050919050565b613e8d81613a0e565b82525050565b6000613e9f8383613e84565b60208301905092915050565b6000602082019050919050565b6000613ec382613e58565b613ecd8185613e63565b9350613ed883613e74565b8060005b83811015613f09578151613ef08882613e93565b9750613efb83613eab565b925050600181019050613edc565b5085935050505092915050565b60006020820190508181036000830152613f308184613eb8565b905092915050565b60038110613f4557600080fd5b50565b600081359050613f5781613f38565b92915050565b600060208284031215613f7357613f72613814565b5b6000613f8184828501613f48565b91505092915050565b600081519050919050565b600082825260208201905092915050565b6000819050602082019050919050565b613fbf8161398b565b82525050565b6000613fd18383613fb6565b60208301905092915050565b6000602082019050919050565b6000613ff582613f8a565b613fff8185613f95565b935061400a83613fa6565b8060005b8381101561403b5781516140228882613fc5565b975061402d83613fdd565b92505060018101905061400e565b5085935050505092915050565b600060208201905081810360008301526140628184613fea565b905092915050565b614073816138a3565b811461407e57600080fd5b50565b6000813590506140908161406a565b92915050565b600080604083850312156140ad576140ac613814565b5b60006140bb85828601613a61565b92505060206140cc85828601614081565b9150509250929050565b600067ffffffffffffffff8211156140f1576140f0613ce4565b5b6140fa8261391f565b9050602081019050919050565b600061411a614115846140d6565b613d44565b90508281526020810184848401111561413657614135613cdf565b5b614141848285613d90565b509392505050565b600082601f83011261415e5761415d613c2d565b5b813561416e848260208601614107565b91505092915050565b6000806000806080858703121561419157614190613814565b5b600061419f87828801613a61565b94505060206141b087828801613a61565b93505060406141c1878288016139ac565b925050606085013567ffffffffffffffff8111156141e2576141e1613819565b5b6141ee87828801614149565b91505092959194509250565b7f4e487b7100000000000000000000000000000000000000000000000000000000600052602160045260246000fd5b6003811061423a576142396141fa565b5b50565b600081905061424b82614229565b919050565b600061425b8261423d565b9050919050565b61426b81614250565b82525050565b60006020820190506142866000830184614262565b92915050565b600080604083850312156142a3576142a2613814565b5b60006142b185828601613a61565b92505060206142c285828601613a61565b9150509250929050565b6000819050919050565b60006142f16142ec6142e7846139ee565b6142cc565b6139ee565b9050919050565b6000614303826142d6565b9050919050565b6000614315826142f8565b9050919050565b6143258161430a565b82525050565b6000602082019050614340600083018461431c565b92915050565b7f4e487b7100000000000000000000000000000000000000000000000000000000600052602260045260246000fd5b6000600282049050600182168061438d57607f821691505b6020821081036143a05761439f614346565b5b50919050565b60006060820190506143bb6000830186613a20565b6143c86020830185613ae3565b6143d56040830184613a20565b949350505050565b60006040820190506143f26000830185613a20565b6143ff6020830184613ae3565b9392505050565b7f4e6f2066756e647320617661696c61626c650000000000000000000000000000600082015250565b600061443c6012836138e4565b915061444782614406565b602082019050919050565b6000602082019050818103600083015261446b8161442f565b9050919050565b7f4e487b7100000000000000000000000000000000000000000000000000000000600052603260045260246000fd5b7f4d7573742068617665206f70657261746f7220726f6c65206f72206265206f7760008201527f6e65720000000000000000000000000000000000000000000000000000000000602082015250565b60006144fd6023836138e4565b9150614508826144a1565b604082019050919050565b6000602082019050818103600083015261452c816144f0565b9050919050565b60008190508160005260206000209050919050565b60006020601f8301049050919050565b600082821b905092915050565b6000600883026145957fffffffffffffffffffffffffffffffffffffffffffffffffffffffffffffffff82614558565b61459f8683614558565b95508019841693508086168417925050509392505050565b60006145d26145cd6145c88461398b565b6142cc565b61398b565b9050919050565b6000819050919050565b6145ec836145b7565b6146006145f8826145d9565b848454614565565b825550505050565b600090565b614615614608565b6146208184846145e3565b505050565b5b818110156146445761463960008261460d565b600181019050614626565b5050565b601f8211156146895761465a81614533565b61466384614548565b81016020851015614672578190505b61468661467e85614548565b830182614625565b50505b505050565b600082821c905092915050565b60006146ac6000198460080261468e565b1980831691505092915050565b60006146c5838361469b565b9150826002028217905092915050565b6146de826138d9565b67ffffffffffffffff8111156146f7576146f6613ce4565b5b6147018254614375565b61470c828285614648565b600060209050601f83116001811461473f576000841561472d578287015190505b61473785826146b9565b86555061479f565b601f19841661474d86614533565b60005b8281101561477557848901518255600182019150602085019450602081019050614750565b86831015614792578489015161478e601f89168261469b565b8355505b6001600288020188555050505b505050505050565b60006040820190506147bc6000830185613a20565b6147c96020830184613a20565b9392505050565b6000815190506147df81613995565b92915050565b6000602082840312156147fb576147fa613814565b5b6000614809848285016147d0565b91505092915050565b7f45786365656473206d6178696d756d20737570706c7900000000000000000000600082015250565b60006148486016836138e4565b915061485382614812565b602082019050919050565b600060208201905081810360008301526148778161483b565b9050919050565b7f4e487b7100000000000000000000000000000000000000000000000000000000600052601160045260246000fd5b60006148b88261398b565b91506148c38361398b565b92508282019050808211156148db576148da61487e565b5b92915050565b7f4e6f7420617661696c61626c6500000000000000000000000000000000000000600082015250565b6000614917600d836138e4565b9150614922826148e1565b602082019050919050565b600060208201905081810360008301526149468161490a565b9050919050565b7f5175616e74697479206d757374206265206174206c65617374206f6e65000000600082015250565b6000614983601d836138e4565b915061498e8261494d565b602082019050919050565b600060208201905081810360008301526149b281614976565b9050919050565b60006149c48261398b565b91506149cf8361398b565b92508282026149dd8161398b565b915082820484148315176149f4576149f361487e565b5b5092915050565b7f496e636f72726563742076616c75652073656e74000000000000000000000000600082015250565b6000614a316014836138e4565b9150614a3c826149fb565b602082019050919050565b60006020820190508181036000830152614a6081614a24565b9050919050565b7f4e6f7420696e2077686974656c69737400000000000000000000000000000000600082015250565b6000614a9d6010836138e4565b9150614aa882614a67565b602082019050919050565b60006020820190508181036000830152614acc81614a90565b9050919050565b7f416c7265616479206d696e74656420696e207468697320706861736500000000600082015250565b6000614b09601c836138e4565b9150614b1482614ad3565b602082019050919050565b60006020820190508181036000830152614b3881614afc565b9050919050565b600081905092915050565b6000614b55826138d9565b614b5f8185614b3f565b9350614b6f8185602086016138f5565b80840191505092915050565b7f2e6a736f6e000000000000000000000000000000000000000000000000000000600082015250565b6000614bb1600583614b3f565b9150614bbc82614b7b565b600582019050919050565b6000614bd38285614b4a565b9150614bdf8284614b4a565b9150614bea82614ba4565b91508190509392505050565b6000614c018261398b565b9150614c0c8361398b565b9250828203905081811115614c2457614c2361487e565b5b92915050565b6000819050919050565b614c45614c408261398b565b614c2a565b82525050565b6000614c578286614c34565b602082019150614c678285614c34565b602082019150614c778284614c34565b602082019150819050949350505050565b7f4e487b7100000000000000000000000000000000000000000000000000000000600052601260045260246000fd5b6000614cc28261398b565b9150614ccd8361398b565b925082614cdd57614cdc614c88565b5b828206905092915050565b6000614cf48285614c34565b602082019150614d048284614c34565b6020820191508190509392505050565b600081519050919050565b600082825260208201905092915050565b6000614d3b82614d14565b614d458185614d1f565b9350614d558185602086016138f5565b614d5e8161391f565b840191505092915050565b6000608082019050614d7e6000830187613a20565b614d8b6020830186613a20565b614d986040830185613ae3565b8181036060830152614daa8184614d30565b905095945050505050565b600081519050614dc48161384a565b92915050565b600060208284031215614de057614ddf613814565b5b6000614dee84828501614db5565b91505092915050565b7f4e487b7100000000000000000000000000000000000000000000000000000000600052603160045260246000fd5b6000604082019050614e3b6000830185613a20565b614e486020830184613bc3565b939250505056fea26469706673582212209a823667dac7837c081471e798bf45c961affa5fa017684b461cc42841300dc664736f6c63430008180033",
  "linkReferences": {},
  "deployedLinkReferences": {}
}