{
  "_format": "hh-sol-artifact-1",
  "contractName": "ERC721NFT",
  "sourceName": "contracts/ERC721NFT.sol",
  "abi": [
    {
      "inputs": [],
      "stateMutability": "nonpayable",
      "type": "constructor"
    },
    {
      "inputs": [],
      "name": "AccessControlBadConfirmation",
      "type": "error"
    },
    {
      "inputs": [
        {
          "internalType": "address",
          "name": "account",
          "type": "address"
        },
        {
          "internalType": "bytes32",
          "name": "neededRole",
          "type": "bytes32"
        }
      ],
      "name": "AccessControlUnauthorizedAccount",
      "type": "error"
    },
    {
      "inputs": [],
      "name": "ERC721EnumerableForbiddenBatchMint",
      "type": "error"
    },
    {
      "inputs": [
        {
          "internalType": "address",
          "name": "sender",
          "type": "address"
        },
        {
          "internalType": "uint256",
          "name": "tokenId",
          "type": "uint256"
        },
        {
          "internalType": "address",
          "name": "owner",
          "type": "address"
        }
      ],
      "name": "ERC721IncorrectOwner",
      "type": "error"
    },
    {
      "inputs": [
        {
          "internalType": "address",
          "name": "operator",
          "type": "address"
        },
        {
          "internalType": "uint256",
          "name": "tokenId",
          "type": "uint256"
        }
      ],
      "name": "ERC721InsufficientApproval",
      "type": "error"
    },
    {
      "inputs": [
        {
          "internalType": "address",
          "name": "approver",
          "type": "address"
        }
      ],
      "name": "ERC721InvalidApprover",
      "type": "error"
    },
    {
      "inputs": [
        {
          "internalType": "address",
          "name": "operator",
          "type": "address"
        }
      ],
      "name": "ERC721InvalidOperator",
      "type": "error"
    },
    {
      "inputs": [
        {
          "internalType": "address",
          "name": "owner",
          "type": "address"
        }
      ],
      "name": "ERC721InvalidOwner",
      "type": "error"
    },
    {
      "inputs": [
        {
          "internalType": "address",
          "name": "receiver",
          "type": "address"
        }
      ],
      "name": "ERC721InvalidReceiver",
      "type": "error"
    },
    {
      "inputs": [
        {
          "internalType": "address",
          "name": "sender",
          "type": "address"
        }
      ],
      "name": "ERC721InvalidSender",
      "type": "error"
    },
    {
      "inputs": [
        {
          "internalType": "uint256",
          "name": "tokenId",
          "type": "uint256"
        }
      ],
      "name": "ERC721NonexistentToken",
      "type": "error"
    },
    {
      "inputs": [
        {
          "internalType": "address",
          "name": "owner",
          "type": "address"
        },
        {
          "internalType": "uint256",
          "name": "index",
          "type": "uint256"
        }
      ],
      "name": "ERC721OutOfBoundsIndex",
      "type": "error"
    },
    {
      "inputs": [
        {
          "internalType": "address",
          "name": "owner",
          "type": "address"
        }
      ],
      "name": "OwnableInvalidOwner",
      "type": "error"
    },
    {
      "inputs": [
        {
          "internalType": "address",
          "name": "account",
          "type": "address"
        }
      ],
      "name": "OwnableUnauthorizedAccount",
      "type": "error"
    },
    {
      "anonymous": false,
      "inputs": [
        {
          "indexed": true,
          "internalType": "address",
          "name": "owner",
          "type": "address"
        },
        {
          "indexed": true,
          "internalType": "address",
          "name": "approved",
          "type": "address"
        },
        {
          "indexed": true,
          "internalType": "uint256",
          "name": "tokenId",
          "type": "uint256"
        }
      ],
      "name": "Approval",
      "type": "event"
    },
    {
      "anonymous": false,
      "inputs": [
        {
          "indexed": true,
          "internalType": "address",
          "name": "owner",
          "type": "address"
        },
        {
          "indexed": true,
          "internalType": "address",
          "name": "operator",
          "type": "address"
        },
        {
          "indexed": false,
          "internalType": "bool",
          "name": "approved",
          "type": "bool"
        }
      ],
      "name": "ApprovalForAll",
      "type": "event"
    },
    {
      "anonymous": false,
      "inputs": [
        {
          "indexed": true,
          "internalType": "address",
          "name": "previousOwner",
          "type": "address"
        },
        {
          "indexed": true,
          "internalType": "address",
          "name": "newOwner",
          "type": "address"
        }
      ],
      "name": "OwnershipTransferred",
      "type": "event"
    },
    {
      "anonymous": false,
      "inputs": [
        {
          "indexed": true,
          "internalType": "bytes32",
          "name": "role",
          "type": "bytes32"
        },
        {
          "indexed": true,
          "internalType": "bytes32",
          "name": "previousAdminRole",
          "type": "bytes32"
        },
        {
          "indexed": true,
          "internalType": "bytes32",
          "name": "newAdminRole",
          "type": "bytes32"
        }
      ],
      "name": "RoleAdminChanged",
      "type": "event"
    },
    {
      "anonymous": false,
      "inputs": [
        {
          "indexed": true,
          "internalType": "bytes32",
          "name": "role",
          "type": "bytes32"
        },
        {
          "indexed": true,
          "internalType": "address",
          "name": "account",
          "type": "address"
        },
        {
          "indexed": true,
          "internalType": "address",
          "name": "sender",
          "type": "address"
        }
      ],
      "name": "RoleGranted",
      "type": "event"
    },
    {
      "anonymous": false,
      "inputs": [
        {
          "indexed": true,
          "internalType": "bytes32",
          "name": "role",
          "type": "bytes32"
        },
        {
          "indexed": true,
          "internalType": "address",
          "name": "account",
          "type": "address"
        },
        {
          "indexed": true,
          "internalType": "address",
          "name": "sender",
          "type": "address"
        }
      ],
      "name": "RoleRevoked",
      "type": "event"
    },
    {
      "anonymous": false,
      "inputs": [
        {
          "indexed": true,
          "internalType": "address",
          "name": "from",
          "type": "address"
        },
        {
          "indexed": true,
          "internalType": "address",
          "name": "to",
          "type": "address"
        },
        {
          "indexed": true,
          "internalType": "uint256",
          "name": "tokenId",
          "type": "uint256"
        }
      ],
      "name": "Transfer",
      "type": "event"
    },
    {
      "inputs": [],
      "name": "DEFAULT_ADMIN_ROLE",
      "outputs": [
        {
          "internalType": "bytes32",
          "name": "",
          "type": "bytes32"
        }
      ],
      "stateMutability": "view",
      "type": "function"
    },
    {
      "inputs": [],
      "name": "MINT_PRICE",
      "outputs": [
        {
          "internalType": "uint256",
          "name": "",
          "type": "uint256"
        }
      ],
      "stateMutability": "view",
      "type": "function"
    },
    {
      "inputs": [],
      "name": "OPERATOR_ROLE",
      "outputs": [
        {
          "internalType": "bytes32",
          "name": "",
          "type": "bytes32"
        }
      ],
      "stateMutability": "view",
      "type": "function"
    },
    {
      "inputs": [
        {
          "internalType": "address[]",
          "name": "addresses",
          "type": "address[]"
        }
      ],
      "name": "addToWhitelist",
      "outputs": [],
      "stateMutability": "nonpayable",
      "type": "function"
    },
    {
      "inputs": [
        {
          "internalType": "address",
          "name": "to",
          "type": "address"
        },
        {
          "internalType": "uint256",
          "name": "tokenId",
          "type": "uint256"
        }
      ],
      "name": "approve",
      "outputs": [],
      "stateMutability": "nonpayable",
      "type": "function"
    },
    {
      "inputs": [
        {
          "internalType": "address",
          "name": "owner",
          "type": "address"
        }
      ],
      "name": "balanceOf",
      "outputs": [
        {
          "internalType": "uint256",
          "name": "",
          "type": "uint256"
        }
      ],
      "stateMutability": "view",
      "type": "function"
    },
    {
      "inputs": [
        {
          "internalType": "address[]",
          "name": "addresses",
          "type": "address[]"
        }
      ],
      "name": "batchAirdrop",
      "outputs": [],
      "stateMutability": "nonpayable",
      "type": "function"
    },
    {
      "inputs": [],
      "name": "blastContract",
      "outputs": [
        {
          "internalType": "contract IBlast",
          "name": "",
          "type": "address"
        }
      ],
      "stateMutability": "view",
      "type": "function"
    },
    {
      "inputs": [
        {
          "internalType": "address",
          "name": "recipient",
          "type": "address"
        }
      ],
      "name": "claimGasFees",
      "outputs": [],
      "stateMutability": "nonpayable",
      "type": "function"
    },
    {
      "inputs": [
        {
          "internalType": "uint256",
          "name": "tokenId",
          "type": "uint256"
        }
      ],
      "name": "getApproved",
      "outputs": [
        {
          "internalType": "address",
          "name": "",
          "type": "address"
        }
      ],
      "stateMutability": "view",
      "type": "function"
    },
    {
      "inputs": [
        {
          "internalType": "bytes32",
          "name": "role",
          "type": "bytes32"
        }
      ],
      "name": "getRoleAdmin",
      "outputs": [
        {
          "internalType": "bytes32",
          "name": "",
          "type": "bytes32"
        }
      ],
      "stateMutability": "view",
      "type": "function"
    },
    {
      "inputs": [],
      "name": "getWhitelistAddresses",
      "outputs": [
        {
          "internalType": "address[]",
          "name": "",
          "type": "address[]"
        }
      ],
      "stateMutability": "view",
      "type": "function"
    },
    {
      "inputs": [
        {
          "internalType": "bytes32",
          "name": "role",
          "type": "bytes32"
        },
        {
          "internalType": "address",
          "name": "account",
          "type": "address"
        }
      ],
      "name": "grantRole",
      "outputs": [],
      "stateMutability": "nonpayable",
      "type": "function"
    },
    {
      "inputs": [
        {
          "internalType": "address",
          "name": "",
          "type": "address"
        }
      ],
      "name": "hasMintedInWhitelist",
      "outputs": [
        {
          "internalType": "bool",
          "name": "",
          "type": "bool"
        }
      ],
      "stateMutability": "view",
      "type": "function"
    },
    {
      "inputs": [
        {
          "internalType": "bytes32",
          "name": "role",
          "type": "bytes32"
        },
        {
          "internalType": "address",
          "name": "account",
          "type": "address"
        }
      ],
      "name": "hasRole",
      "outputs": [
        {
          "internalType": "bool",
          "name": "",
          "type": "bool"
        }
      ],
      "stateMutability": "view",
      "type": "function"
    },
    {
      "inputs": [
        {
          "internalType": "address",
          "name": "owner",
          "type": "address"
        },
        {
          "internalType": "address",
          "name": "operator",
          "type": "address"
        }
      ],
      "name": "isApprovedForAll",
      "outputs": [
        {
          "internalType": "bool",
          "name": "",
          "type": "bool"
        }
      ],
      "stateMutability": "view",
      "type": "function"
    },
    {
      "inputs": [
        {
          "internalType": "address",
          "name": "addr",
          "type": "address"
        }
      ],
      "name": "isWhitelisted",
      "outputs": [
        {
          "internalType": "bool",
          "name": "",
          "type": "bool"
        }
      ],
      "stateMutability": "view",
      "type": "function"
    },
    {
      "inputs": [],
      "name": "maxSupply",
      "outputs": [
        {
          "internalType": "uint256",
          "name": "",
          "type": "uint256"
        }
      ],
      "stateMutability": "view",
      "type": "function"
    },
    {
      "inputs": [],
      "name": "mint",
      "outputs": [],
      "stateMutability": "payable",
      "type": "function"
    },
    {
      "inputs": [],
      "name": "name",
      "outputs": [
        {
          "internalType": "string",
          "name": "",
          "type": "string"
        }
      ],
      "stateMutability": "view",
      "type": "function"
    },
    {
      "inputs": [],
      "name": "owner",
      "outputs": [
        {
          "internalType": "address",
          "name": "",
          "type": "address"
        }
      ],
      "stateMutability": "view",
      "type": "function"
    },
    {
      "inputs": [
        {
          "internalType": "uint256",
          "name": "tokenId",
          "type": "uint256"
        }
      ],
      "name": "ownerOf",
      "outputs": [
        {
          "internalType": "address",
          "name": "",
          "type": "address"
        }
      ],
      "stateMutability": "view",
      "type": "function"
    },
    {
      "inputs": [],
      "name": "remainingSupply",
      "outputs": [
        {
          "internalType": "uint256",
          "name": "",
          "type": "uint256"
        }
      ],
      "stateMutability": "view",
      "type": "function"
    },
    {
      "inputs": [
        {
          "internalType": "address[]",
          "name": "addresses",
          "type": "address[]"
        }
      ],
      "name": "removeFromWhitelist",
      "outputs": [],
      "stateMutability": "nonpayable",
      "type": "function"
    },
    {
      "inputs": [],
      "name": "renounceOwnership",
      "outputs": [],
      "stateMutability": "nonpayable",
      "type": "function"
    },
    {
      "inputs": [
        {
          "internalType": "bytes32",
          "name": "role",
          "type": "bytes32"
        },
        {
          "internalType": "address",
          "name": "callerConfirmation",
          "type": "address"
        }
      ],
      "name": "renounceRole",
      "outputs": [],
      "stateMutability": "nonpayable",
      "type": "function"
    },
    {
      "inputs": [
        {
          "internalType": "bytes32",
          "name": "role",
          "type": "bytes32"
        },
        {
          "internalType": "address",
          "name": "account",
          "type": "address"
        }
      ],
      "name": "revokeRole",
      "outputs": [],
      "stateMutability": "nonpayable",
      "type": "function"
    },
    {
      "inputs": [
        {
          "internalType": "address",
          "name": "from",
          "type": "address"
        },
        {
          "internalType": "address",
          "name": "to",
          "type": "address"
        },
        {
          "internalType": "uint256",
          "name": "tokenId",
          "type": "uint256"
        }
      ],
      "name": "safeTransferFrom",
      "outputs": [],
      "stateMutability": "nonpayable",
      "type": "function"
    },
    {
      "inputs": [
        {
          "internalType": "address",
          "name": "from",
          "type": "address"
        },
        {
          "internalType": "address",
          "name": "to",
          "type": "address"
        },
        {
          "internalType": "uint256",
          "name": "tokenId",
          "type": "uint256"
        },
        {
          "internalType": "bytes",
          "name": "data",
          "type": "bytes"
        }
      ],
      "name": "safeTransferFrom",
      "outputs": [],
      "stateMutability": "nonpayable",
      "type": "function"
    },
    {
      "inputs": [],
      "name": "salePhase",
      "outputs": [
        {
          "internalType": "enum ERC721NFT.SalePhase",
          "name": "",
          "type": "uint8"
        }
      ],
      "stateMutability": "view",
      "type": "function"
    },
    {
      "inputs": [
        {
          "internalType": "address",
          "name": "operator",
          "type": "address"
        },
        {
          "internalType": "bool",
          "name": "approved",
          "type": "bool"
        }
      ],
      "name": "setApprovalForAll",
      "outputs": [],
      "stateMutability": "nonpayable",
      "type": "function"
    },
    {
      "inputs": [
        {
          "internalType": "string",
          "name": "baseURI",
          "type": "string"
        }
      ],
      "name": "setBaseURI",
      "outputs": [],
      "stateMutability": "nonpayable",
      "type": "function"
    },
    {
      "inputs": [
        {
          "internalType": "enum ERC721NFT.SalePhase",
          "name": "phase",
          "type": "uint8"
        }
      ],
      "name": "setSalePhase",
      "outputs": [],
      "stateMutability": "nonpayable",
      "type": "function"
    },
    {
      "inputs": [
        {
          "internalType": "bytes32",
          "name": "role",
          "type": "bytes32"
        },
        {
          "internalType": "address",
          "name": "account",
          "type": "address"
        }
      ],
      "name": "setupRole",
      "outputs": [],
      "stateMutability": "nonpayable",
      "type": "function"
    },
    {
      "inputs": [
        {
          "internalType": "bytes4",
          "name": "interfaceId",
          "type": "bytes4"
        }
      ],
      "name": "supportsInterface",
      "outputs": [
        {
          "internalType": "bool",
          "name": "",
          "type": "bool"
        }
      ],
      "stateMutability": "view",
      "type": "function"
    },
    {
      "inputs": [],
      "name": "symbol",
      "outputs": [
        {
          "internalType": "string",
          "name": "",
          "type": "string"
        }
      ],
      "stateMutability": "view",
      "type": "function"
    },
    {
      "inputs": [
        {
          "internalType": "uint256",
          "name": "index",
          "type": "uint256"
        }
      ],
      "name": "tokenByIndex",
      "outputs": [
        {
          "internalType": "uint256",
          "name": "",
          "type": "uint256"
        }
      ],
      "stateMutability": "view",
      "type": "function"
    },
    {
      "inputs": [
        {
          "internalType": "address",
          "name": "owner",
          "type": "address"
        },
        {
          "internalType": "uint256",
          "name": "index",
          "type": "uint256"
        }
      ],
      "name": "tokenOfOwnerByIndex",
      "outputs": [
        {
          "internalType": "uint256",
          "name": "",
          "type": "uint256"
        }
      ],
      "stateMutability": "view",
      "type": "function"
    },
    {
      "inputs": [
        {
          "internalType": "uint256",
          "name": "tokenId",
          "type": "uint256"
        }
      ],
      "name": "tokenURI",
      "outputs": [
        {
          "internalType": "string",
          "name": "",
          "type": "string"
        }
      ],
      "stateMutability": "view",
      "type": "function"
    },
    {
      "inputs": [
        {
          "internalType": "address",
          "name": "owner",
          "type": "address"
        }
      ],
      "name": "tokensOfOwner",
      "outputs": [
        {
          "internalType": "uint256[]",
          "name": "",
          "type": "uint256[]"
        }
      ],
      "stateMutability": "view",
      "type": "function"
    },
    {
      "inputs": [],
      "name": "totalSupply",
      "outputs": [
        {
          "internalType": "uint256",
          "name": "",
          "type": "uint256"
        }
      ],
      "stateMutability": "view",
      "type": "function"
    },
    {
      "inputs": [
        {
          "internalType": "address",
          "name": "from",
          "type": "address"
        },
        {
          "internalType": "address",
          "name": "to",
          "type": "address"
        },
        {
          "internalType": "uint256",
          "name": "tokenId",
          "type": "uint256"
        }
      ],
      "name": "transferFrom",
      "outputs": [],
      "stateMutability": "nonpayable",
      "type": "function"
    },
    {
      "inputs": [
        {
          "internalType": "address",
          "name": "newOwner",
          "type": "address"
        }
      ],
      "name": "transferOwnership",
      "outputs": [],
      "stateMutability": "nonpayable",
      "type": "function"
    },
    {
      "inputs": [],
      "name": "withdraw",
      "outputs": [],
      "stateMutability": "nonpayable",
      "type": "function"
    }
  ],
  "bytecode": "0x608060405260036013553480156200001657600080fd5b50336040518060400160405280600b81526020017f43686174794e205a484f550000000000000000000000000000000000000000008152506040518060400160405280600481526020017f5a484f550000000000000000000000000000000000000000000000000000000081525081600090816200009591906200082f565b508060019081620000a791906200082f565b505050600073ffffffffffffffffffffffffffffffffffffffff168173ffffffffffffffffffffffffffffffffffffffff16036200011f5760006040517f1e4fbdf70000000000000000000000000000000000000000000000000000000081526004016200011691906200095b565b60405180910390fd5b62000130816200028560201b60201c565b506000601460006101000a81548160ff021916908360018111156200015a576200015962000978565b5b0217905550734300000000000000000000000000000000000002600e60006101000a81548173ffffffffffffffffffffffffffffffffffffffff021916908373ffffffffffffffffffffffffffffffffffffffff160217905550600e60009054906101000a900473ffffffffffffffffffffffffffffffffffffffff1673ffffffffffffffffffffffffffffffffffffffff16634e606c476040518163ffffffff1660e01b8152600401600060405180830381600087803b1580156200021f57600080fd5b505af115801562000234573d6000803e3d6000fd5b505050506200024d6000801b336200034b60201b60201c565b6200027f7f97667070c54ef182b0f5858b034beac1b6f3089aa2d3188bb1e8929f4fa9b929336200034b60201b60201c565b620009a7565b6000600a60009054906101000a900473ffffffffffffffffffffffffffffffffffffffff16905081600a60006101000a81548173ffffffffffffffffffffffffffffffffffffffff021916908373ffffffffffffffffffffffffffffffffffffffff1602179055508173ffffffffffffffffffffffffffffffffffffffff168173ffffffffffffffffffffffffffffffffffffffff167f8be0079c531659141344cd1fd0a4f28419497f9722a3daafe3b4186f6b6457e060405160405180910390a35050565b6200035b6200037260201b60201c565b6200036d82826200041460201b60201c565b505050565b620003826200051860201b60201c565b73ffffffffffffffffffffffffffffffffffffffff16620003a86200052060201b60201c565b73ffffffffffffffffffffffffffffffffffffffff16146200041257620003d46200051860201b60201c565b6040517f118cdaa70000000000000000000000000000000000000000000000000000000081526004016200040991906200095b565b60405180910390fd5b565b60006200042883836200054a60201b60201c565b6200050d576001600b600085815260200190815260200160002060000160008473ffffffffffffffffffffffffffffffffffffffff1673ffffffffffffffffffffffffffffffffffffffff16815260200190815260200160002060006101000a81548160ff021916908315150217905550620004a96200051860201b60201c565b73ffffffffffffffffffffffffffffffffffffffff168273ffffffffffffffffffffffffffffffffffffffff16847f2f8788117e7eff1d82e926ec794901d17c78024a50270940304540a733656f0d60405160405180910390a46001905062000512565b600090505b92915050565b600033905090565b6000600a60009054906101000a900473ffffffffffffffffffffffffffffffffffffffff16905090565b6000600b600084815260200190815260200160002060000160008373ffffffffffffffffffffffffffffffffffffffff1673ffffffffffffffffffffffffffffffffffffffff16815260200190815260200160002060009054906101000a900460ff16905092915050565b600081519050919050565b7f4e487b7100000000000000000000000000000000000000000000000000000000600052604160045260246000fd5b7f4e487b7100000000000000000000000000000000000000000000000000000000600052602260045260246000fd5b600060028204905060018216806200063757607f821691505b6020821081036200064d576200064c620005ef565b5b50919050565b60008190508160005260206000209050919050565b60006020601f8301049050919050565b600082821b905092915050565b600060088302620006b77fffffffffffffffffffffffffffffffffffffffffffffffffffffffffffffffff8262000678565b620006c3868362000678565b95508019841693508086168417925050509392505050565b6000819050919050565b6000819050919050565b6000620007106200070a6200070484620006db565b620006e5565b620006db565b9050919050565b6000819050919050565b6200072c83620006ef565b620007446200073b8262000717565b84845462000685565b825550505050565b600090565b6200075b6200074c565b6200076881848462000721565b505050565b5b8181101562000790576200078460008262000751565b6001810190506200076e565b5050565b601f821115620007df57620007a98162000653565b620007b48462000668565b81016020851015620007c4578190505b620007dc620007d38562000668565b8301826200076d565b50505b505050565b600082821c905092915050565b60006200080460001984600802620007e4565b1980831691505092915050565b60006200081f8383620007f1565b9150826002028217905092915050565b6200083a82620005b5565b67ffffffffffffffff811115620008565762000855620005c0565b5b6200086282546200061e565b6200086f82828562000794565b600060209050601f831160018114620008a7576000841562000892578287015190505b6200089e858262000811565b8655506200090e565b601f198416620008b78662000653565b60005b82811015620008e157848901518255600182019150602085019450602081019050620008ba565b86831015620009015784890151620008fd601f891682620007f1565b8355505b6001600288020188555050505b505050505050565b600073ffffffffffffffffffffffffffffffffffffffff82169050919050565b6000620009438262000916565b9050919050565b620009558162000936565b82525050565b60006020820190506200097260008301846200094a565b92915050565b7f4e487b7100000000000000000000000000000000000000000000000000000000600052602160045260246000fd5b614c1a80620009b76000396000f3fe6080604052600436106102675760003560e01c80637ad5943111610144578063c002d23d116100b6578063e4f2487a1161007a578063e4f2487a14610941578063e985e9c51461096c578063f2fde38b146109a9578063f5b541a6146109d2578063fa82ac76146109fd578063fce14af614610a2657610267565b8063c002d23d1461085a578063c87b56dd14610885578063d547741f146108c2578063d5abeb01146108eb578063da0239a61461091657610267565b806395d89b411161010857806395d89b4114610760578063992f9f4b1461078b5780639edfbec9146107b4578063a217fddf146107dd578063a22cb46514610808578063b88d4fde1461083157610267565b80637ad59431146106695780637f649783146106925780638462151c146106bb5780638da5cb5b146106f857806391d148541461072357610267565b806336568abe116101dd578063548db174116101a1578063548db1741461055b57806355f804b314610584578063578cbd1f146105ad5780636352211e146105d857806370a0823114610615578063715018a61461065257610267565b806336568abe146104785780633af32abf146104a15780633ccfd60b146104de57806342842e0e146104f55780634f6ccce71461051e57610267565b80631249c58b1161022f5780631249c58b1461037757806318160ddd1461038157806323b872dd146103ac578063248a9ca3146103d55780632f2ff15d146104125780632f745c591461043b57610267565b806301ffc9a71461026c57806306fdde03146102a9578063081812fc146102d4578063095ea7b3146103115780630a8b062b1461033a575b600080fd5b34801561027857600080fd5b50610293600480360381019061028e919061377c565b610a51565b6040516102a091906137c4565b60405180910390f35b3480156102b557600080fd5b506102be610a63565b6040516102cb919061386f565b60405180910390f35b3480156102e057600080fd5b506102fb60048036038101906102f691906138c7565b610af5565b6040516103089190613935565b60405180910390f35b34801561031d57600080fd5b506103386004803603810190610333919061397c565b610b11565b005b34801561034657600080fd5b50610361600480360381019061035c91906139bc565b610b27565b60405161036e91906137c4565b60405180910390f35b61037f610b47565b005b34801561038d57600080fd5b50610396610d72565b6040516103a391906139f8565b60405180910390f35b3480156103b857600080fd5b506103d360048036038101906103ce9190613a13565b610d7f565b005b3480156103e157600080fd5b506103fc60048036038101906103f79190613a9c565b610e81565b6040516104099190613ad8565b60405180910390f35b34801561041e57600080fd5b5061043960048036038101906104349190613af3565b610ea1565b005b34801561044757600080fd5b50610462600480360381019061045d919061397c565b610ec3565b60405161046f91906139f8565b60405180910390f35b34801561048457600080fd5b5061049f600480360381019061049a9190613af3565b610f6c565b005b3480156104ad57600080fd5b506104c860048036038101906104c391906139bc565b610fe7565b6040516104d591906137c4565b60405180910390f35b3480156104ea57600080fd5b506104f3611004565b005b34801561050157600080fd5b5061051c60048036038101906105179190613a13565b6110a5565b005b34801561052a57600080fd5b50610545600480360381019061054091906138c7565b6110c5565b60405161055291906139f8565b60405180910390f35b34801561056757600080fd5b50610582600480360381019061057d9190613b98565b61113b565b005b34801561059057600080fd5b506105ab60048036038101906105a69190613d15565b61123d565b005b3480156105b957600080fd5b506105c26112f6565b6040516105cf9190613e1c565b60405180910390f35b3480156105e457600080fd5b506105ff60048036038101906105fa91906138c7565b6113d5565b60405161060c9190613935565b60405180910390f35b34801561062157600080fd5b5061063c600480360381019061063791906139bc565b6113e7565b60405161064991906139f8565b60405180910390f35b34801561065e57600080fd5b506106676114a1565b005b34801561067557600080fd5b50610690600480360381019061068b9190613e63565b6114b5565b005b34801561069e57600080fd5b506106b960048036038101906106b49190613b98565b611588565b005b3480156106c757600080fd5b506106e260048036038101906106dd91906139bc565b61168a565b6040516106ef9190613f4e565b60405180910390f35b34801561070457600080fd5b5061070d611732565b60405161071a9190613935565b60405180910390f35b34801561072f57600080fd5b5061074a60048036038101906107459190613af3565b61175c565b60405161075791906137c4565b60405180910390f35b34801561076c57600080fd5b506107756117c7565b604051610782919061386f565b60405180910390f35b34801561079757600080fd5b506107b260048036038101906107ad91906139bc565b611859565b005b3480156107c057600080fd5b506107db60048036038101906107d69190613b98565b611905565b005b3480156107e957600080fd5b506107f26119cb565b6040516107ff9190613ad8565b60405180910390f35b34801561081457600080fd5b5061082f600480360381019061082a9190613f9c565b6119d2565b005b34801561083d57600080fd5b506108586004803603810190610853919061407d565b6119e8565b005b34801561086657600080fd5b5061086f611a05565b60405161087c91906139f8565b60405180910390f35b34801561089157600080fd5b506108ac60048036038101906108a791906138c7565b611a10565b6040516108b9919061386f565b60405180910390f35b3480156108ce57600080fd5b506108e960048036038101906108e49190613af3565b611a79565b005b3480156108f757600080fd5b50610900611a9b565b60405161090d91906139f8565b60405180910390f35b34801561092257600080fd5b5061092b611aa1565b60405161093891906139f8565b60405180910390f35b34801561094d57600080fd5b50610956611ab8565b6040516109639190614177565b60405180910390f35b34801561097857600080fd5b50610993600480360381019061098e9190614192565b611acb565b6040516109a091906137c4565b60405180910390f35b3480156109b557600080fd5b506109d060048036038101906109cb91906139bc565b611b5f565b005b3480156109de57600080fd5b506109e7611be5565b6040516109f49190613ad8565b60405180910390f35b348015610a0957600080fd5b50610a246004803603810190610a1f9190613af3565b611c09565b005b348015610a3257600080fd5b50610a3b611c20565b604051610a489190614231565b60405180910390f35b6000610a5c82611c46565b9050919050565b606060008054610a729061427b565b80601f0160208091040260200160405190810160405280929190818152602001828054610a9e9061427b565b8015610aeb5780601f10610ac057610100808354040283529160200191610aeb565b820191906000526020600020905b815481529060010190602001808311610ace57829003601f168201915b5050505050905090565b6000610b0082611cc0565b50610b0a82611d48565b9050919050565b610b238282610b1e611d85565b611d8d565b5050565b60106020528060005260406000206000915054906101000a900460ff1681565b60135460125410610b8d576040517f08c379a0000000000000000000000000000000000000000000000000000000008152600401610b84906142f8565b60405180910390fd5b66071afd498d00003414610bd6576040517f08c379a0000000000000000000000000000000000000000000000000000000008152600401610bcd90614364565b60405180910390fd5b60006001811115610bea57610be9614100565b5b601460009054906101000a900460ff166001811115610c0c57610c0b614100565b5b03610d3f57610c1a33610fe7565b610c59576040517f08c379a0000000000000000000000000000000000000000000000000000000008152600401610c50906143d0565b60405180910390fd5b601060003373ffffffffffffffffffffffffffffffffffffffff1673ffffffffffffffffffffffffffffffffffffffff16815260200190815260200160002060009054906101000a900460ff1615610ce6576040517f08c379a0000000000000000000000000000000000000000000000000000000008152600401610cdd9061443c565b60405180910390fd5b6001601060003373ffffffffffffffffffffffffffffffffffffffff1673ffffffffffffffffffffffffffffffffffffffff16815260200190815260200160002060006101000a81548160ff0219169083151502179055505b6000610d49611d9f565b9050600160126000828254610d5e919061448b565b92505081905550610d6f3382611e7b565b50565b6000600880549050905090565b600073ffffffffffffffffffffffffffffffffffffffff168273ffffffffffffffffffffffffffffffffffffffff1603610df15760006040517f64a0ae92000000000000000000000000000000000000000000000000000000008152600401610de89190613935565b60405180910390fd5b6000610e058383610e00611d85565b611f74565b90508373ffffffffffffffffffffffffffffffffffffffff168173ffffffffffffffffffffffffffffffffffffffff1614610e7b578382826040517f64283d7b000000000000000000000000000000000000000000000000000000008152600401610e72939291906144bf565b60405180910390fd5b50505050565b6000600b6000838152602001908152602001600020600101549050919050565b610eaa82610e81565b610eb381612091565b610ebd83836120a5565b50505050565b6000610ece836113e7565b8210610f135782826040517fa57d13dc000000000000000000000000000000000000000000000000000000008152600401610f0a9291906144f6565b60405180910390fd5b600660008473ffffffffffffffffffffffffffffffffffffffff1673ffffffffffffffffffffffffffffffffffffffff168152602001908152602001600020600083815260200190815260200160002054905092915050565b610f74611d85565b73ffffffffffffffffffffffffffffffffffffffff168173ffffffffffffffffffffffffffffffffffffffff1614610fd8576040517f6697b23200000000000000000000000000000000000000000000000000000000815260040160405180910390fd5b610fe28282612197565b505050565b6000610ffd82600c61228a90919063ffffffff16565b9050919050565b61100c6122ba565b600047905060008111611054576040517f08c379a000000000000000000000000000000000000000000000000000000000815260040161104b9061456b565b60405180910390fd5b61105c611732565b73ffffffffffffffffffffffffffffffffffffffff166108fc829081150290604051600060405180830381858888f193505050501580156110a1573d6000803e3d6000fd5b5050565b6110c0838383604051806020016040528060008152506119e8565b505050565b60006110cf610d72565b8210611115576000826040517fa57d13dc00000000000000000000000000000000000000000000000000000000815260040161110c9291906144f6565b60405180910390fd5b600882815481106111295761112861458b565b5b90600052602060002001549050919050565b6111657f97667070c54ef182b0f5858b034beac1b6f3089aa2d3188bb1e8929f4fa9b9293361175c565b806111a257503373ffffffffffffffffffffffffffffffffffffffff1661118a611732565b73ffffffffffffffffffffffffffffffffffffffff16145b6111e1576040517f08c379a00000000000000000000000000000000000000000000000000000000081526004016111d89061462c565b60405180910390fd5b60005b828290508110156112385761122a8383838181106112055761120461458b565b5b905060200201602081019061121a91906139bc565b600c61234190919063ffffffff16565b5080806001019150506111e4565b505050565b6112677f97667070c54ef182b0f5858b034beac1b6f3089aa2d3188bb1e8929f4fa9b9293361175c565b806112a457503373ffffffffffffffffffffffffffffffffffffffff1661128c611732565b73ffffffffffffffffffffffffffffffffffffffff16145b6112e3576040517f08c379a00000000000000000000000000000000000000000000000000000000081526004016112da9061462c565b60405180910390fd5b80600f90816112f291906147ee565b5050565b60606000611304600c612371565b905060008167ffffffffffffffff81111561132257611321613bea565b5b6040519080825280602002602001820160405280156113505781602001602082028036833780820191505090505b50905060005b828110156113cc5761137281600c61238690919063ffffffff16565b8282815181106113855761138461458b565b5b602002602001019073ffffffffffffffffffffffffffffffffffffffff16908173ffffffffffffffffffffffffffffffffffffffff16815250508080600101915050611356565b50809250505090565b60006113e082611cc0565b9050919050565b60008073ffffffffffffffffffffffffffffffffffffffff168273ffffffffffffffffffffffffffffffffffffffff160361145a5760006040517f89c62b640000000000000000000000000000000000000000000000000000000081526004016114519190613935565b60405180910390fd5b600360008373ffffffffffffffffffffffffffffffffffffffff1673ffffffffffffffffffffffffffffffffffffffff168152602001908152602001600020549050919050565b6114a96122ba565b6114b360006123a0565b565b6114df7f97667070c54ef182b0f5858b034beac1b6f3089aa2d3188bb1e8929f4fa9b9293361175c565b8061151c57503373ffffffffffffffffffffffffffffffffffffffff16611504611732565b73ffffffffffffffffffffffffffffffffffffffff16145b61155b576040517f08c379a00000000000000000000000000000000000000000000000000000000081526004016115529061462c565b60405180910390fd5b80601460006101000a81548160ff021916908360018111156115805761157f614100565b5b021790555050565b6115b27f97667070c54ef182b0f5858b034beac1b6f3089aa2d3188bb1e8929f4fa9b9293361175c565b806115ef57503373ffffffffffffffffffffffffffffffffffffffff166115d7611732565b73ffffffffffffffffffffffffffffffffffffffff16145b61162e576040517f08c379a00000000000000000000000000000000000000000000000000000000081526004016116259061462c565b60405180910390fd5b60005b82829050811015611685576116778383838181106116525761165161458b565b5b905060200201602081019061166791906139bc565b600c61246690919063ffffffff16565b508080600101915050611631565b505050565b60606000611697836113e7565b905060008167ffffffffffffffff8111156116b5576116b4613bea565b5b6040519080825280602002602001820160405280156116e35781602001602082028036833780820191505090505b50905060005b82811015611727576116fb8582610ec3565b82828151811061170e5761170d61458b565b5b60200260200101818152505080806001019150506116e9565b508092505050919050565b6000600a60009054906101000a900473ffffffffffffffffffffffffffffffffffffffff16905090565b6000600b600084815260200190815260200160002060000160008373ffffffffffffffffffffffffffffffffffffffff1673ffffffffffffffffffffffffffffffffffffffff16815260200190815260200160002060009054906101000a900460ff16905092915050565b6060600180546117d69061427b565b80601f01602080910402602001604051908101604052809291908181526020018280546118029061427b565b801561184f5780601f106118245761010080835404028352916020019161184f565b820191906000526020600020905b81548152906001019060200180831161183257829003601f168201915b5050505050905090565b6118616122ba565b600e60009054906101000a900473ffffffffffffffffffffffffffffffffffffffff1673ffffffffffffffffffffffffffffffffffffffff1663954fa5ee30836040518363ffffffff1660e01b81526004016118be9291906148c0565b6020604051808303816000875af11580156118dd573d6000803e3d6000fd5b505050506040513d601f19601f8201168201806040525081019061190191906148fe565b5050565b61190d6122ba565b60135460125410611953576040517f08c379a000000000000000000000000000000000000000000000000000000000815260040161194a906142f8565b60405180910390fd5b60005b828290508110156119c657600061196b611d9f565b9050600160126000828254611980919061448b565b925050819055506119b884848481811061199d5761199c61458b565b5b90506020020160208101906119b291906139bc565b82611e7b565b508080600101915050611956565b505050565b6000801b81565b6119e46119dd611d85565b8383612496565b5050565b6119f3848484610d7f565b6119ff84848484612605565b50505050565b66071afd498d000081565b6060611a1b82611cc0565b506000611a266127bc565b90506000815111611a465760405180602001604052806000815250611a71565b80611a508461284e565b604051602001611a61929190614967565b6040516020818303038152906040525b915050919050565b611a8282610e81565b611a8b81612091565b611a958383612197565b50505050565b60135481565b6000601254601354611ab3919061498b565b905090565b601460009054906101000a900460ff1681565b6000600560008473ffffffffffffffffffffffffffffffffffffffff1673ffffffffffffffffffffffffffffffffffffffff16815260200190815260200160002060008373ffffffffffffffffffffffffffffffffffffffff1673ffffffffffffffffffffffffffffffffffffffff16815260200190815260200160002060009054906101000a900460ff16905092915050565b611b676122ba565b600073ffffffffffffffffffffffffffffffffffffffff168173ffffffffffffffffffffffffffffffffffffffff1603611bd95760006040517f1e4fbdf7000000000000000000000000000000000000000000000000000000008152600401611bd09190613935565b60405180910390fd5b611be2816123a0565b50565b7f97667070c54ef182b0f5858b034beac1b6f3089aa2d3188bb1e8929f4fa9b92981565b611c116122ba565b611c1b82826120a5565b505050565b600e60009054906101000a900473ffffffffffffffffffffffffffffffffffffffff1681565b60007f7965db0b000000000000000000000000000000000000000000000000000000007bffffffffffffffffffffffffffffffffffffffffffffffffffffffff1916827bffffffffffffffffffffffffffffffffffffffffffffffffffffffff19161480611cb95750611cb88261291c565b5b9050919050565b600080611ccc83612996565b9050600073ffffffffffffffffffffffffffffffffffffffff168173ffffffffffffffffffffffffffffffffffffffff1603611d3f57826040517f7e273289000000000000000000000000000000000000000000000000000000008152600401611d3691906139f8565b60405180910390fd5b80915050919050565b60006004600083815260200190815260200160002060009054906101000a900473ffffffffffffffffffffffffffffffffffffffff169050919050565b600033905090565b611d9a83838360016129d3565b505050565b6000806013544442601254604051602001611dbc939291906149e0565b6040516020818303038152906040528051906020012060001c611ddf9190614a4c565b90505b6011600082815260200190815260200160002060009054906101000a900460ff1615611e48576013548142604051602001611e1e929190614a7d565b6040516020818303038152906040528051906020012060001c611e419190614a4c565b9050611de2565b60016011600083815260200190815260200160002060006101000a81548160ff0219169083151502179055508091505090565b600073ffffffffffffffffffffffffffffffffffffffff168273ffffffffffffffffffffffffffffffffffffffff1603611eed5760006040517f64a0ae92000000000000000000000000000000000000000000000000000000008152600401611ee49190613935565b60405180910390fd5b6000611efb83836000611f74565b9050600073ffffffffffffffffffffffffffffffffffffffff168173ffffffffffffffffffffffffffffffffffffffff1614611f6f5760006040517f73c6ac6e000000000000000000000000000000000000000000000000000000008152600401611f669190613935565b60405180910390fd5b505050565b600080611f82858585612b98565b9050600073ffffffffffffffffffffffffffffffffffffffff168173ffffffffffffffffffffffffffffffffffffffff1603611fc657611fc184612db2565b612005565b8473ffffffffffffffffffffffffffffffffffffffff168173ffffffffffffffffffffffffffffffffffffffff1614612004576120038185612dfb565b5b5b600073ffffffffffffffffffffffffffffffffffffffff168573ffffffffffffffffffffffffffffffffffffffff16036120475761204284612f5c565b612086565b8473ffffffffffffffffffffffffffffffffffffffff168173ffffffffffffffffffffffffffffffffffffffff161461208557612084858561302d565b5b5b809150509392505050565b6120a28161209d611d85565b6130b8565b50565b60006120b1838361175c565b61218c576001600b600085815260200190815260200160002060000160008473ffffffffffffffffffffffffffffffffffffffff1673ffffffffffffffffffffffffffffffffffffffff16815260200190815260200160002060006101000a81548160ff021916908315150217905550612129611d85565b73ffffffffffffffffffffffffffffffffffffffff168273ffffffffffffffffffffffffffffffffffffffff16847f2f8788117e7eff1d82e926ec794901d17c78024a50270940304540a733656f0d60405160405180910390a460019050612191565b600090505b92915050565b60006121a3838361175c565b1561227f576000600b600085815260200190815260200160002060000160008473ffffffffffffffffffffffffffffffffffffffff1673ffffffffffffffffffffffffffffffffffffffff16815260200190815260200160002060006101000a81548160ff02191690831515021790555061221c611d85565b73ffffffffffffffffffffffffffffffffffffffff168273ffffffffffffffffffffffffffffffffffffffff16847ff6391f5c32d9c69d2a47ea670b442974b53935d1edc7fd64eb21e047a839171b60405160405180910390a460019050612284565b600090505b92915050565b60006122b2836000018373ffffffffffffffffffffffffffffffffffffffff1660001b613109565b905092915050565b6122c2611d85565b73ffffffffffffffffffffffffffffffffffffffff166122e0611732565b73ffffffffffffffffffffffffffffffffffffffff161461233f57612303611d85565b6040517f118cdaa70000000000000000000000000000000000000000000000000000000081526004016123369190613935565b60405180910390fd5b565b6000612369836000018373ffffffffffffffffffffffffffffffffffffffff1660001b61312c565b905092915050565b600061237f82600001613240565b9050919050565b60006123958360000183613251565b60001c905092915050565b6000600a60009054906101000a900473ffffffffffffffffffffffffffffffffffffffff16905081600a60006101000a81548173ffffffffffffffffffffffffffffffffffffffff021916908373ffffffffffffffffffffffffffffffffffffffff1602179055508173ffffffffffffffffffffffffffffffffffffffff168173ffffffffffffffffffffffffffffffffffffffff167f8be0079c531659141344cd1fd0a4f28419497f9722a3daafe3b4186f6b6457e060405160405180910390a35050565b600061248e836000018373ffffffffffffffffffffffffffffffffffffffff1660001b61327c565b905092915050565b600073ffffffffffffffffffffffffffffffffffffffff168273ffffffffffffffffffffffffffffffffffffffff160361250757816040517f5b08ba180000000000000000000000000000000000000000000000000000000081526004016124fe9190613935565b60405180910390fd5b80600560008573ffffffffffffffffffffffffffffffffffffffff1673ffffffffffffffffffffffffffffffffffffffff16815260200190815260200160002060008473ffffffffffffffffffffffffffffffffffffffff1673ffffffffffffffffffffffffffffffffffffffff16815260200190815260200160002060006101000a81548160ff0219169083151502179055508173ffffffffffffffffffffffffffffffffffffffff168373ffffffffffffffffffffffffffffffffffffffff167f17307eab39ab6107e8899845ad3d59bd9653f200f220920489ca2b5937696c31836040516125f891906137c4565b60405180910390a3505050565b60008373ffffffffffffffffffffffffffffffffffffffff163b11156127b6578273ffffffffffffffffffffffffffffffffffffffff1663150b7a02612649611d85565b8685856040518563ffffffff1660e01b815260040161266b9493929190614afe565b6020604051808303816000875af19250505080156126a757506040513d601f19601f820116820180604052508101906126a49190614b5f565b60015b61272b573d80600081146126d7576040519150601f19603f3d011682016040523d82523d6000602084013e6126dc565b606091505b50600081510361272357836040517f64a0ae9200000000000000000000000000000000000000000000000000000000815260040161271a9190613935565b60405180910390fd5b805181602001fd5b63150b7a0260e01b7bffffffffffffffffffffffffffffffffffffffffffffffffffffffff1916817bffffffffffffffffffffffffffffffffffffffffffffffffffffffff1916146127b457836040517f64a0ae920000000000000000000000000000000000000000000000000000000081526004016127ab9190613935565b60405180910390fd5b505b50505050565b6060600f80546127cb9061427b565b80601f01602080910402602001604051908101604052809291908181526020018280546127f79061427b565b80156128445780601f1061281957610100808354040283529160200191612844565b820191906000526020600020905b81548152906001019060200180831161282757829003601f168201915b5050505050905090565b60606000600161285d846132ec565b01905060008167ffffffffffffffff81111561287c5761287b613bea565b5b6040519080825280601f01601f1916602001820160405280156128ae5781602001600182028036833780820191505090505b509050600082602001820190505b600115612911578080600190039150507f3031323334353637383961626364656600000000000000000000000000000000600a86061a8153600a858161290557612904614a1d565b5b049450600085036128bc575b819350505050919050565b60007f780e9d63000000000000000000000000000000000000000000000000000000007bffffffffffffffffffffffffffffffffffffffffffffffffffffffff1916827bffffffffffffffffffffffffffffffffffffffffffffffffffffffff1916148061298f575061298e8261343f565b5b9050919050565b60006002600083815260200190815260200160002060009054906101000a900473ffffffffffffffffffffffffffffffffffffffff169050919050565b8080612a0c5750600073ffffffffffffffffffffffffffffffffffffffff168273ffffffffffffffffffffffffffffffffffffffff1614155b15612b40576000612a1c84611cc0565b9050600073ffffffffffffffffffffffffffffffffffffffff168373ffffffffffffffffffffffffffffffffffffffff1614158015612a8757508273ffffffffffffffffffffffffffffffffffffffff168173ffffffffffffffffffffffffffffffffffffffff1614155b8015612a9a5750612a988184611acb565b155b15612adc57826040517fa9fbf51f000000000000000000000000000000000000000000000000000000008152600401612ad39190613935565b60405180910390fd5b8115612b3e57838573ffffffffffffffffffffffffffffffffffffffff168273ffffffffffffffffffffffffffffffffffffffff167f8c5be1e5ebec7d5bd14f71427d1e84f3dd0314c0f7b2291e5b200ac8c7c3b92560405160405180910390a45b505b836004600085815260200190815260200160002060006101000a81548173ffffffffffffffffffffffffffffffffffffffff021916908373ffffffffffffffffffffffffffffffffffffffff16021790555050505050565b600080612ba484612996565b9050600073ffffffffffffffffffffffffffffffffffffffff168373ffffffffffffffffffffffffffffffffffffffff1614612be657612be5818486613521565b5b600073ffffffffffffffffffffffffffffffffffffffff168173ffffffffffffffffffffffffffffffffffffffff1614612c7757612c286000856000806129d3565b6001600360008373ffffffffffffffffffffffffffffffffffffffff1673ffffffffffffffffffffffffffffffffffffffff168152602001908152602001600020600082825403925050819055505b600073ffffffffffffffffffffffffffffffffffffffff168573ffffffffffffffffffffffffffffffffffffffff1614612cfa576001600360008773ffffffffffffffffffffffffffffffffffffffff1673ffffffffffffffffffffffffffffffffffffffff168152602001908152602001600020600082825401925050819055505b846002600086815260200190815260200160002060006101000a81548173ffffffffffffffffffffffffffffffffffffffff021916908373ffffffffffffffffffffffffffffffffffffffff160217905550838573ffffffffffffffffffffffffffffffffffffffff168273ffffffffffffffffffffffffffffffffffffffff167fddf252ad1be2c89b69c2b068fc378daa952ba7f163c4a11628f55a4df523b3ef60405160405180910390a4809150509392505050565b6008805490506009600083815260200190815260200160002081905550600881908060018154018082558091505060019003906000526020600020016000909190919091505550565b6000612e06836113e7565b9050600060076000848152602001908152602001600020549050818114612eeb576000600660008673ffffffffffffffffffffffffffffffffffffffff1673ffffffffffffffffffffffffffffffffffffffff168152602001908152602001600020600084815260200190815260200160002054905080600660008773ffffffffffffffffffffffffffffffffffffffff1673ffffffffffffffffffffffffffffffffffffffff168152602001908152602001600020600084815260200190815260200160002081905550816007600083815260200190815260200160002081905550505b6007600084815260200190815260200160002060009055600660008573ffffffffffffffffffffffffffffffffffffffff1673ffffffffffffffffffffffffffffffffffffffff16815260200190815260200160002060008381526020019081526020016000206000905550505050565b60006001600880549050612f70919061498b565b9050600060096000848152602001908152602001600020549050600060088381548110612fa057612f9f61458b565b5b906000526020600020015490508060088381548110612fc257612fc161458b565b5b90600052602060002001819055508160096000838152602001908152602001600020819055506009600085815260200190815260200160002060009055600880548061301157613010614b8c565b5b6001900381819060005260206000200160009055905550505050565b6000600161303a846113e7565b613044919061498b565b905081600660008573ffffffffffffffffffffffffffffffffffffffff1673ffffffffffffffffffffffffffffffffffffffff168152602001908152602001600020600083815260200190815260200160002081905550806007600084815260200190815260200160002081905550505050565b6130c2828261175c565b6131055780826040517fe2517d3f0000000000000000000000000000000000000000000000000000000081526004016130fc929190614bbb565b60405180910390fd5b5050565b600080836001016000848152602001908152602001600020541415905092915050565b6000808360010160008481526020019081526020016000205490506000811461323457600060018261315e919061498b565b9050600060018660000180549050613176919061498b565b90508082146131e55760008660000182815481106131975761319661458b565b5b90600052602060002001549050808760000184815481106131bb576131ba61458b565b5b90600052602060002001819055508387600101600083815260200190815260200160002081905550505b856000018054806131f9576131f8614b8c565b5b60019003818190600052602060002001600090559055856001016000868152602001908152602001600020600090556001935050505061323a565b60009150505b92915050565b600081600001805490509050919050565b60008260000182815481106132695761326861458b565b5b9060005260206000200154905092915050565b60006132888383613109565b6132e15782600001829080600181540180825580915050600190039060005260206000200160009091909190915055826000018054905083600101600084815260200190815260200160002081905550600190506132e6565b600090505b92915050565b600080600090507a184f03e93ff9f4daa797ed6e38ed64bf6a1f010000000000000000831061334a577a184f03e93ff9f4daa797ed6e38ed64bf6a1f01000000000000000083816133405761333f614a1d565b5b0492506040810190505b6d04ee2d6d415b85acef81000000008310613387576d04ee2d6d415b85acef8100000000838161337d5761337c614a1d565b5b0492506020810190505b662386f26fc1000083106133b657662386f26fc1000083816133ac576133ab614a1d565b5b0492506010810190505b6305f5e10083106133df576305f5e10083816133d5576133d4614a1d565b5b0492506008810190505b61271083106134045761271083816133fa576133f9614a1d565b5b0492506004810190505b60648310613427576064838161341d5761341c614a1d565b5b0492506002810190505b600a8310613436576001810190505b80915050919050565b60007f80ac58cd000000000000000000000000000000000000000000000000000000007bffffffffffffffffffffffffffffffffffffffffffffffffffffffff1916827bffffffffffffffffffffffffffffffffffffffffffffffffffffffff1916148061350a57507f5b5e139f000000000000000000000000000000000000000000000000000000007bffffffffffffffffffffffffffffffffffffffffffffffffffffffff1916827bffffffffffffffffffffffffffffffffffffffffffffffffffffffff1916145b8061351a5750613519826135e5565b5b9050919050565b61352c83838361364f565b6135e057600073ffffffffffffffffffffffffffffffffffffffff168373ffffffffffffffffffffffffffffffffffffffff16036135a157806040517f7e27328900000000000000000000000000000000000000000000000000000000815260040161359891906139f8565b60405180910390fd5b81816040517f177e802f0000000000000000000000000000000000000000000000000000000081526004016135d79291906144f6565b60405180910390fd5b505050565b60007f01ffc9a7000000000000000000000000000000000000000000000000000000007bffffffffffffffffffffffffffffffffffffffffffffffffffffffff1916827bffffffffffffffffffffffffffffffffffffffffffffffffffffffff1916149050919050565b60008073ffffffffffffffffffffffffffffffffffffffff168373ffffffffffffffffffffffffffffffffffffffff161415801561370757508273ffffffffffffffffffffffffffffffffffffffff168473ffffffffffffffffffffffffffffffffffffffff1614806136c857506136c78484611acb565b5b8061370657508273ffffffffffffffffffffffffffffffffffffffff166136ee83611d48565b73ffffffffffffffffffffffffffffffffffffffff16145b5b90509392505050565b6000604051905090565b600080fd5b600080fd5b60007fffffffff0000000000000000000000000000000000000000000000000000000082169050919050565b61375981613724565b811461376457600080fd5b50565b60008135905061377681613750565b92915050565b6000602082840312156137925761379161371a565b5b60006137a084828501613767565b91505092915050565b60008115159050919050565b6137be816137a9565b82525050565b60006020820190506137d960008301846137b5565b92915050565b600081519050919050565b600082825260208201905092915050565b60005b838110156138195780820151818401526020810190506137fe565b60008484015250505050565b6000601f19601f8301169050919050565b6000613841826137df565b61384b81856137ea565b935061385b8185602086016137fb565b61386481613825565b840191505092915050565b600060208201905081810360008301526138898184613836565b905092915050565b6000819050919050565b6138a481613891565b81146138af57600080fd5b50565b6000813590506138c18161389b565b92915050565b6000602082840312156138dd576138dc61371a565b5b60006138eb848285016138b2565b91505092915050565b600073ffffffffffffffffffffffffffffffffffffffff82169050919050565b600061391f826138f4565b9050919050565b61392f81613914565b82525050565b600060208201905061394a6000830184613926565b92915050565b61395981613914565b811461396457600080fd5b50565b60008135905061397681613950565b92915050565b600080604083850312156139935761399261371a565b5b60006139a185828601613967565b92505060206139b2858286016138b2565b9150509250929050565b6000602082840312156139d2576139d161371a565b5b60006139e084828501613967565b91505092915050565b6139f281613891565b82525050565b6000602082019050613a0d60008301846139e9565b92915050565b600080600060608486031215613a2c57613a2b61371a565b5b6000613a3a86828701613967565b9350506020613a4b86828701613967565b9250506040613a5c868287016138b2565b9150509250925092565b6000819050919050565b613a7981613a66565b8114613a8457600080fd5b50565b600081359050613a9681613a70565b92915050565b600060208284031215613ab257613ab161371a565b5b6000613ac084828501613a87565b91505092915050565b613ad281613a66565b82525050565b6000602082019050613aed6000830184613ac9565b92915050565b60008060408385031215613b0a57613b0961371a565b5b6000613b1885828601613a87565b9250506020613b2985828601613967565b9150509250929050565b600080fd5b600080fd5b600080fd5b60008083601f840112613b5857613b57613b33565b5b8235905067ffffffffffffffff811115613b7557613b74613b38565b5b602083019150836020820283011115613b9157613b90613b3d565b5b9250929050565b60008060208385031215613baf57613bae61371a565b5b600083013567ffffffffffffffff811115613bcd57613bcc61371f565b5b613bd985828601613b42565b92509250509250929050565b600080fd5b7f4e487b7100000000000000000000000000000000000000000000000000000000600052604160045260246000fd5b613c2282613825565b810181811067ffffffffffffffff82111715613c4157613c40613bea565b5b80604052505050565b6000613c54613710565b9050613c608282613c19565b919050565b600067ffffffffffffffff821115613c8057613c7f613bea565b5b613c8982613825565b9050602081019050919050565b82818337600083830152505050565b6000613cb8613cb384613c65565b613c4a565b905082815260208101848484011115613cd457613cd3613be5565b5b613cdf848285613c96565b509392505050565b600082601f830112613cfc57613cfb613b33565b5b8135613d0c848260208601613ca5565b91505092915050565b600060208284031215613d2b57613d2a61371a565b5b600082013567ffffffffffffffff811115613d4957613d4861371f565b5b613d5584828501613ce7565b91505092915050565b600081519050919050565b600082825260208201905092915050565b6000819050602082019050919050565b613d9381613914565b82525050565b6000613da58383613d8a565b60208301905092915050565b6000602082019050919050565b6000613dc982613d5e565b613dd38185613d69565b9350613dde83613d7a565b8060005b83811015613e0f578151613df68882613d99565b9750613e0183613db1565b925050600181019050613de2565b5085935050505092915050565b60006020820190508181036000830152613e368184613dbe565b905092915050565b60028110613e4b57600080fd5b50565b600081359050613e5d81613e3e565b92915050565b600060208284031215613e7957613e7861371a565b5b6000613e8784828501613e4e565b91505092915050565b600081519050919050565b600082825260208201905092915050565b6000819050602082019050919050565b613ec581613891565b82525050565b6000613ed78383613ebc565b60208301905092915050565b6000602082019050919050565b6000613efb82613e90565b613f058185613e9b565b9350613f1083613eac565b8060005b83811015613f41578151613f288882613ecb565b9750613f3383613ee3565b925050600181019050613f14565b5085935050505092915050565b60006020820190508181036000830152613f688184613ef0565b905092915050565b613f79816137a9565b8114613f8457600080fd5b50565b600081359050613f9681613f70565b92915050565b60008060408385031215613fb357613fb261371a565b5b6000613fc185828601613967565b9250506020613fd285828601613f87565b9150509250929050565b600067ffffffffffffffff821115613ff757613ff6613bea565b5b61400082613825565b9050602081019050919050565b600061402061401b84613fdc565b613c4a565b90508281526020810184848401111561403c5761403b613be5565b5b614047848285613c96565b509392505050565b600082601f83011261406457614063613b33565b5b813561407484826020860161400d565b91505092915050565b600080600080608085870312156140975761409661371a565b5b60006140a587828801613967565b94505060206140b687828801613967565b93505060406140c7878288016138b2565b925050606085013567ffffffffffffffff8111156140e8576140e761371f565b5b6140f48782880161404f565b91505092959194509250565b7f4e487b7100000000000000000000000000000000000000000000000000000000600052602160045260246000fd5b600281106141405761413f614100565b5b50565b60008190506141518261412f565b919050565b600061416182614143565b9050919050565b61417181614156565b82525050565b600060208201905061418c6000830184614168565b92915050565b600080604083850312156141a9576141a861371a565b5b60006141b785828601613967565b92505060206141c885828601613967565b9150509250929050565b6000819050919050565b60006141f76141f26141ed846138f4565b6141d2565b6138f4565b9050919050565b6000614209826141dc565b9050919050565b600061421b826141fe565b9050919050565b61422b81614210565b82525050565b60006020820190506142466000830184614222565b92915050565b7f4e487b7100000000000000000000000000000000000000000000000000000000600052602260045260246000fd5b6000600282049050600182168061429357607f821691505b6020821081036142a6576142a561424c565b5b50919050565b7f45786365656473206d6178696d756d20737570706c7900000000000000000000600082015250565b60006142e26016836137ea565b91506142ed826142ac565b602082019050919050565b60006020820190508181036000830152614311816142d5565b9050919050565b7f496e636f72726563742076616c75652073656e74000000000000000000000000600082015250565b600061434e6014836137ea565b915061435982614318565b602082019050919050565b6000602082019050818103600083015261437d81614341565b9050919050565b7f4e6f7420696e2077686974656c69737400000000000000000000000000000000600082015250565b60006143ba6010836137ea565b91506143c582614384565b602082019050919050565b600060208201905081810360008301526143e9816143ad565b9050919050565b7f416c7265616479206d696e74656420696e207468697320706861736500000000600082015250565b6000614426601c836137ea565b9150614431826143f0565b602082019050919050565b6000602082019050818103600083015261445581614419565b9050919050565b7f4e487b7100000000000000000000000000000000000000000000000000000000600052601160045260246000fd5b600061449682613891565b91506144a183613891565b92508282019050808211156144b9576144b861445c565b5b92915050565b60006060820190506144d46000830186613926565b6144e160208301856139e9565b6144ee6040830184613926565b949350505050565b600060408201905061450b6000830185613926565b61451860208301846139e9565b9392505050565b7f4e6f2066756e647320617661696c61626c650000000000000000000000000000600082015250565b60006145556012836137ea565b91506145608261451f565b602082019050919050565b6000602082019050818103600083015261458481614548565b9050919050565b7f4e487b7100000000000000000000000000000000000000000000000000000000600052603260045260246000fd5b7f4d7573742068617665206f70657261746f7220726f6c65206f72206265206f7760008201527f6e65720000000000000000000000000000000000000000000000000000000000602082015250565b60006146166023836137ea565b9150614621826145ba565b604082019050919050565b6000602082019050818103600083015261464581614609565b9050919050565b60008190508160005260206000209050919050565b60006020601f8301049050919050565b600082821b905092915050565b6000600883026146ae7fffffffffffffffffffffffffffffffffffffffffffffffffffffffffffffffff82614671565b6146b88683614671565b95508019841693508086168417925050509392505050565b60006146eb6146e66146e184613891565b6141d2565b613891565b9050919050565b6000819050919050565b614705836146d0565b614719614711826146f2565b84845461467e565b825550505050565b600090565b61472e614721565b6147398184846146fc565b505050565b5b8181101561475d57614752600082614726565b60018101905061473f565b5050565b601f8211156147a2576147738161464c565b61477c84614661565b8101602085101561478b578190505b61479f61479785614661565b83018261473e565b50505b505050565b600082821c905092915050565b60006147c5600019846008026147a7565b1980831691505092915050565b60006147de83836147b4565b9150826002028217905092915050565b6147f7826137df565b67ffffffffffffffff8111156148105761480f613bea565b5b61481a825461427b565b614825828285614761565b600060209050601f8311600181146148585760008415614846578287015190505b61485085826147d2565b8655506148b8565b601f1984166148668661464c565b60005b8281101561488e57848901518255600182019150602085019450602081019050614869565b868310156148ab57848901516148a7601f8916826147b4565b8355505b6001600288020188555050505b505050505050565b60006040820190506148d56000830185613926565b6148e26020830184613926565b9392505050565b6000815190506148f88161389b565b92915050565b6000602082840312156149145761491361371a565b5b6000614922848285016148e9565b91505092915050565b600081905092915050565b6000614941826137df565b61494b818561492b565b935061495b8185602086016137fb565b80840191505092915050565b60006149738285614936565b915061497f8284614936565b91508190509392505050565b600061499682613891565b91506149a183613891565b92508282039050818111156149b9576149b861445c565b5b92915050565b6000819050919050565b6149da6149d582613891565b6149bf565b82525050565b60006149ec82866149c9565b6020820191506149fc82856149c9565b602082019150614a0c82846149c9565b602082019150819050949350505050565b7f4e487b7100000000000000000000000000000000000000000000000000000000600052601260045260246000fd5b6000614a5782613891565b9150614a6283613891565b925082614a7257614a71614a1d565b5b828206905092915050565b6000614a8982856149c9565b602082019150614a9982846149c9565b6020820191508190509392505050565b600081519050919050565b600082825260208201905092915050565b6000614ad082614aa9565b614ada8185614ab4565b9350614aea8185602086016137fb565b614af381613825565b840191505092915050565b6000608082019050614b136000830187613926565b614b206020830186613926565b614b2d60408301856139e9565b8181036060830152614b3f8184614ac5565b905095945050505050565b600081519050614b5981613750565b92915050565b600060208284031215614b7557614b7461371a565b5b6000614b8384828501614b4a565b91505092915050565b7f4e487b7100000000000000000000000000000000000000000000000000000000600052603160045260246000fd5b6000604082019050614bd06000830185613926565b614bdd6020830184613ac9565b939250505056fea2646970667358221220a13e4a16bd3ac6589bafe7991dcb8d2cf571b3abe8b0395e857843870869f86e64736f6c63430008180033",
  "linkReferences": {},
  "deployedLinkReferences": {}
}